{
  "address": "0xCC55Cb3c6aE9EFB1F99f426e954a9032Ad378544",
  "abi": [
    {
      "inputs": [
        {
          "internalType": "address",
          "name": "_endpoint",
          "type": "address"
        },
        {
          "internalType": "address",
          "name": "_owner",
          "type": "address"
        },
        {
          "internalType": "string",
          "name": "_name",
          "type": "string"
        },
        {
          "internalType": "string",
          "name": "_symbol",
          "type": "string"
        }
      ],
      "stateMutability": "nonpayable",
      "type": "constructor"
    },
    {
      "inputs": [],
      "name": "AccessControlBadConfirmation",
      "type": "error"
    },
    {
      "inputs": [
        {
          "internalType": "address",
          "name": "account",
          "type": "address"
        },
        {
          "internalType": "bytes32",
          "name": "neededRole",
          "type": "bytes32"
        }
      ],
      "name": "AccessControlUnauthorizedAccount",
      "type": "error"
    },
    {
      "inputs": [
        {
          "internalType": "address",
          "name": "spender",
          "type": "address"
        },
        {
          "internalType": "uint256",
          "name": "allowance",
          "type": "uint256"
        },
        {
          "internalType": "uint256",
          "name": "needed",
          "type": "uint256"
        }
      ],
      "name": "ERC20InsufficientAllowance",
      "type": "error"
    },
    {
      "inputs": [
        {
          "internalType": "address",
          "name": "sender",
          "type": "address"
        },
        {
          "internalType": "uint256",
          "name": "balance",
          "type": "uint256"
        },
        {
          "internalType": "uint256",
          "name": "needed",
          "type": "uint256"
        }
      ],
      "name": "ERC20InsufficientBalance",
      "type": "error"
    },
    {
      "inputs": [
        {
          "internalType": "address",
          "name": "approver",
          "type": "address"
        }
      ],
      "name": "ERC20InvalidApprover",
      "type": "error"
    },
    {
      "inputs": [
        {
          "internalType": "address",
          "name": "receiver",
          "type": "address"
        }
      ],
      "name": "ERC20InvalidReceiver",
      "type": "error"
    },
    {
      "inputs": [
        {
          "internalType": "address",
          "name": "sender",
          "type": "address"
        }
      ],
      "name": "ERC20InvalidSender",
      "type": "error"
    },
    {
      "inputs": [
        {
          "internalType": "address",
          "name": "spender",
          "type": "address"
        }
      ],
      "name": "ERC20InvalidSpender",
      "type": "error"
    },
    {
      "inputs": [
        {
          "internalType": "address",
          "name": "user",
          "type": "address"
        },
        {
          "internalType": "uint256",
          "name": "tokenId",
          "type": "uint256"
        },
        {
          "internalType": "uint256",
          "name": "amount",
          "type": "uint256"
        },
        {
          "internalType": "uint256",
          "name": "unfrozen",
          "type": "uint256"
        }
      ],
      "name": "ERC7943InsufficientUnfrozenBalance",
      "type": "error"
    },
    {
      "inputs": [
        {
          "internalType": "address",
          "name": "from",
          "type": "address"
        },
        {
          "internalType": "address",
          "name": "to",
          "type": "address"
        },
        {
          "internalType": "uint256",
          "name": "tokenId",
          "type": "uint256"
        },
        {
          "internalType": "uint256",
          "name": "amount",
          "type": "uint256"
        }
      ],
      "name": "ERC7943NotAllowedTransfer",
      "type": "error"
    },
    {
      "inputs": [
        {
          "internalType": "address",
          "name": "account",
          "type": "address"
        }
      ],
      "name": "ERC7943NotAllowedUser",
      "type": "error"
    },
    {
      "inputs": [],
      "name": "InvalidDelegate",
      "type": "error"
    },
    {
      "inputs": [],
      "name": "InvalidEndpointCall",
      "type": "error"
    },
    {
      "inputs": [
        {
          "internalType": "bytes",
          "name": "options",
          "type": "bytes"
        }
      ],
      "name": "InvalidOptions",
      "type": "error"
    },
    {
      "inputs": [],
      "name": "LzTokenUnavailable",
      "type": "error"
    },
    {
      "inputs": [
        {
          "internalType": "uint32",
          "name": "eid",
          "type": "uint32"
        }
      ],
      "name": "NoPeer",
      "type": "error"
    },
    {
      "inputs": [
        {
          "internalType": "uint256",
          "name": "msgValue",
          "type": "uint256"
        }
      ],
      "name": "NotEnoughNative",
      "type": "error"
    },
    {
      "inputs": [],
      "name": "NotZeroAddress",
      "type": "error"
    },
    {
      "inputs": [
        {
          "internalType": "address",
          "name": "addr",
          "type": "address"
        }
      ],
      "name": "OnlyEndpoint",
      "type": "error"
    },
    {
      "inputs": [
        {
          "internalType": "uint32",
          "name": "eid",
          "type": "uint32"
        },
        {
          "internalType": "bytes32",
          "name": "sender",
          "type": "bytes32"
        }
      ],
      "name": "OnlyPeer",
      "type": "error"
    },
    {
      "inputs": [
        {
          "internalType": "address",
          "name": "owner",
          "type": "address"
        }
      ],
      "name": "OwnableInvalidOwner",
      "type": "error"
    },
    {
      "inputs": [
        {
          "internalType": "address",
          "name": "account",
          "type": "address"
        }
      ],
      "name": "OwnableUnauthorizedAccount",
      "type": "error"
    },
    {
      "inputs": [
        {
          "internalType": "address",
          "name": "token",
          "type": "address"
        }
      ],
      "name": "SafeERC20FailedOperation",
      "type": "error"
    },
    {
      "anonymous": false,
      "inputs": [
        {
          "indexed": true,
          "internalType": "address",
          "name": "owner",
          "type": "address"
        },
        {
          "indexed": true,
          "internalType": "address",
          "name": "spender",
          "type": "address"
        },
        {
          "indexed": false,
          "internalType": "uint256",
          "name": "value",
          "type": "uint256"
        }
      ],
      "name": "Approval",
      "type": "event"
    },
    {
      "anonymous": false,
      "inputs": [
        {
          "indexed": true,
          "internalType": "address",
          "name": "account",
          "type": "address"
        },
        {
          "indexed": false,
          "internalType": "uint256",
          "name": "amount",
          "type": "uint256"
        }
      ],
      "name": "Burn",
      "type": "event"
    },
    {
      "anonymous": false,
      "inputs": [
        {
          "components": [
            {
              "internalType": "uint32",
              "name": "eid",
              "type": "uint32"
            },
            {
              "internalType": "uint16",
              "name": "msgType",
              "type": "uint16"
            },
            {
              "internalType": "bytes",
              "name": "options",
              "type": "bytes"
            }
          ],
          "indexed": false,
          "internalType": "struct EnforcedOptionParam[]",
          "name": "_enforcedOptions",
          "type": "tuple[]"
        }
      ],
      "name": "EnforcedOptionSet",
      "type": "event"
    },
    {
      "anonymous": false,
      "inputs": [
        {
          "indexed": true,
          "internalType": "address",
          "name": "from",
          "type": "address"
        },
        {
          "indexed": true,
          "internalType": "address",
          "name": "to",
          "type": "address"
        },
        {
          "indexed": false,
          "internalType": "uint256",
          "name": "tokenId",
          "type": "uint256"
        },
        {
          "indexed": false,
          "internalType": "uint256",
          "name": "amount",
          "type": "uint256"
        }
      ],
      "name": "ForcedTransfer",
      "type": "event"
    },
    {
      "anonymous": false,
      "inputs": [
        {
          "indexed": true,
          "internalType": "address",
          "name": "user",
          "type": "address"
        },
        {
          "indexed": true,
          "internalType": "uint256",
          "name": "tokenId",
          "type": "uint256"
        },
        {
          "indexed": false,
          "internalType": "uint256",
          "name": "amount",
          "type": "uint256"
        }
      ],
      "name": "Frozen",
      "type": "event"
    },
    {
      "anonymous": false,
      "inputs": [
        {
          "indexed": true,
          "internalType": "address",
          "name": "account",
          "type": "address"
        },
        {
          "indexed": false,
          "internalType": "uint256",
          "name": "amount",
          "type": "uint256"
        }
      ],
      "name": "Mint",
      "type": "event"
    },
    {
      "anonymous": false,
      "inputs": [
        {
          "indexed": true,
          "internalType": "address",
          "name": "previousOwner",
          "type": "address"
        },
        {
          "indexed": true,
          "internalType": "address",
          "name": "newOwner",
          "type": "address"
        }
      ],
      "name": "OwnershipTransferred",
      "type": "event"
    },
    {
      "anonymous": false,
      "inputs": [
        {
          "indexed": false,
          "internalType": "uint32",
          "name": "eid",
          "type": "uint32"
        },
        {
          "indexed": false,
          "internalType": "bytes32",
          "name": "peer",
          "type": "bytes32"
        }
      ],
      "name": "PeerSet",
      "type": "event"
    },
    {
      "anonymous": false,
      "inputs": [
        {
          "indexed": true,
          "internalType": "bytes32",
          "name": "role",
          "type": "bytes32"
        },
        {
          "indexed": true,
          "internalType": "bytes32",
          "name": "previousAdminRole",
          "type": "bytes32"
        },
        {
          "indexed": true,
          "internalType": "bytes32",
          "name": "newAdminRole",
          "type": "bytes32"
        }
      ],
      "name": "RoleAdminChanged",
      "type": "event"
    },
    {
      "anonymous": false,
      "inputs": [
        {
          "indexed": true,
          "internalType": "bytes32",
          "name": "role",
          "type": "bytes32"
        },
        {
          "indexed": true,
          "internalType": "address",
          "name": "account",
          "type": "address"
        },
        {
          "indexed": true,
          "internalType": "address",
          "name": "sender",
          "type": "address"
        }
      ],
      "name": "RoleGranted",
      "type": "event"
    },
    {
      "anonymous": false,
      "inputs": [
        {
          "indexed": true,
          "internalType": "bytes32",
          "name": "role",
          "type": "bytes32"
        },
        {
          "indexed": true,
          "internalType": "address",
          "name": "account",
          "type": "address"
        },
        {
          "indexed": true,
          "internalType": "address",
          "name": "sender",
          "type": "address"
        }
      ],
      "name": "RoleRevoked",
      "type": "event"
    },
    {
      "anonymous": false,
      "inputs": [
        {
          "indexed": true,
          "internalType": "address",
          "name": "from",
          "type": "address"
        },
        {
          "indexed": true,
          "internalType": "address",
          "name": "to",
          "type": "address"
        },
        {
          "indexed": false,
          "internalType": "uint256",
          "name": "value",
          "type": "uint256"
        }
      ],
      "name": "Transfer",
      "type": "event"
    },
    {
      "anonymous": false,
      "inputs": [
        {
          "indexed": true,
          "internalType": "address",
          "name": "account",
          "type": "address"
        },
        {
          "indexed": false,
          "internalType": "bool",
          "name": "status",
          "type": "bool"
        }
      ],
      "name": "Whitelisted",
      "type": "event"
    },
    {
      "inputs": [],
      "name": "BURNER_ROLE",
      "outputs": [
        {
          "internalType": "bytes32",
          "name": "",
          "type": "bytes32"
        }
      ],
      "stateMutability": "view",
      "type": "function"
    },
    {
      "inputs": [],
      "name": "BURN_ACTION",
      "outputs": [
        {
          "internalType": "uint256",
          "name": "",
          "type": "uint256"
        }
      ],
      "stateMutability": "view",
      "type": "function"
    },
    {
      "inputs": [],
      "name": "DEFAULT_ADMIN_ROLE",
      "outputs": [
        {
          "internalType": "bytes32",
          "name": "",
          "type": "bytes32"
        }
      ],
      "stateMutability": "view",
      "type": "function"
    },
    {
      "inputs": [],
      "name": "ENFORCER_ROLE",
      "outputs": [
        {
          "internalType": "bytes32",
          "name": "",
          "type": "bytes32"
        }
      ],
      "stateMutability": "view",
      "type": "function"
    },
    {
      "inputs": [],
      "name": "FREEZE_ACTION",
      "outputs": [
        {
          "internalType": "uint256",
          "name": "",
          "type": "uint256"
        }
      ],
      "stateMutability": "view",
      "type": "function"
    },
    {
      "inputs": [],
      "name": "MINTER_ROLE",
      "outputs": [
        {
          "internalType": "bytes32",
          "name": "",
          "type": "bytes32"
        }
      ],
      "stateMutability": "view",
      "type": "function"
    },
    {
      "inputs": [],
      "name": "MINT_ACTION",
      "outputs": [
        {
          "internalType": "uint256",
          "name": "",
          "type": "uint256"
        }
      ],
      "stateMutability": "view",
      "type": "function"
    },
    {
      "inputs": [],
      "name": "SEND",
      "outputs": [
        {
          "internalType": "uint16",
          "name": "",
          "type": "uint16"
        }
      ],
      "stateMutability": "view",
      "type": "function"
    },
    {
      "inputs": [],
      "name": "SEND_ACTION",
      "outputs": [
        {
          "internalType": "uint256",
          "name": "",
          "type": "uint256"
        }
      ],
      "stateMutability": "view",
      "type": "function"
    },
    {
      "inputs": [],
      "name": "WHITELIST_ACTION",
      "outputs": [
        {
          "internalType": "uint256",
          "name": "",
          "type": "uint256"
        }
      ],
      "stateMutability": "view",
      "type": "function"
    },
    {
      "inputs": [],
      "name": "WHITELIST_ROLE",
      "outputs": [
        {
          "internalType": "bytes32",
          "name": "",
          "type": "bytes32"
        }
      ],
      "stateMutability": "view",
      "type": "function"
    },
    {
      "inputs": [
        {
          "components": [
            {
              "internalType": "uint32",
              "name": "srcEid",
              "type": "uint32"
            },
            {
              "internalType": "bytes32",
              "name": "sender",
              "type": "bytes32"
            },
            {
              "internalType": "uint64",
              "name": "nonce",
              "type": "uint64"
            }
          ],
          "internalType": "struct Origin",
          "name": "origin",
          "type": "tuple"
        }
      ],
      "name": "allowInitializePath",
      "outputs": [
        {
          "internalType": "bool",
          "name": "",
          "type": "bool"
        }
      ],
      "stateMutability": "view",
      "type": "function"
    },
    {
      "inputs": [
        {
          "internalType": "address",
          "name": "owner",
          "type": "address"
        },
        {
          "internalType": "address",
          "name": "spender",
          "type": "address"
        }
      ],
      "name": "allowance",
      "outputs": [
        {
          "internalType": "uint256",
          "name": "",
          "type": "uint256"
        }
      ],
      "stateMutability": "view",
      "type": "function"
    },
    {
      "inputs": [
        {
          "internalType": "address",
          "name": "spender",
          "type": "address"
        },
        {
          "internalType": "uint256",
          "name": "value",
          "type": "uint256"
        }
      ],
      "name": "approve",
      "outputs": [
        {
          "internalType": "bool",
          "name": "",
          "type": "bool"
        }
      ],
      "stateMutability": "nonpayable",
      "type": "function"
    },
    {
      "inputs": [
        {
          "internalType": "address",
          "name": "account",
          "type": "address"
        }
      ],
      "name": "balanceOf",
      "outputs": [
        {
          "internalType": "uint256",
          "name": "",
          "type": "uint256"
        }
      ],
      "stateMutability": "view",
      "type": "function"
    },
    {
      "inputs": [
        {
          "internalType": "uint32[]",
          "name": "_dstEids",
          "type": "uint32[]"
        },
        {
          "internalType": "address",
          "name": "_userAddress",
          "type": "address"
        },
        {
          "internalType": "uint256",
          "name": "_amount",
          "type": "uint256"
        },
        {
          "internalType": "bytes",
          "name": "_options",
          "type": "bytes"
        }
      ],
      "name": "batchBurn",
      "outputs": [],
      "stateMutability": "payable",
      "type": "function"
    },
    {
      "inputs": [
        {
          "internalType": "uint32[]",
          "name": "_dstEids",
          "type": "uint32[]"
        },
        {
          "internalType": "address",
          "name": "_userAddress",
          "type": "address"
        },
        {
          "internalType": "uint256",
          "name": "_amount",
          "type": "uint256"
        },
        {
          "internalType": "bytes",
          "name": "_options",
          "type": "bytes"
        }
      ],
      "name": "batchFreeze",
      "outputs": [],
      "stateMutability": "payable",
      "type": "function"
    },
    {
      "inputs": [
        {
          "internalType": "uint32[]",
          "name": "_dstEids",
          "type": "uint32[]"
        },
        {
          "internalType": "address",
          "name": "_userAddress",
          "type": "address"
        },
        {
          "internalType": "uint256",
          "name": "_amount",
          "type": "uint256"
        },
        {
          "internalType": "bytes",
          "name": "_options",
          "type": "bytes"
        }
      ],
      "name": "batchMint",
      "outputs": [],
      "stateMutability": "payable",
      "type": "function"
    },
    {
      "inputs": [
        {
          "internalType": "address",
          "name": "user",
          "type": "address"
        },
        {
          "internalType": "uint256",
          "name": "amount",
          "type": "uint256"
        }
      ],
      "name": "burnRWA",
      "outputs": [],
      "stateMutability": "nonpayable",
      "type": "function"
    },
    {
      "inputs": [
        {
          "internalType": "uint32[]",
          "name": "_dstEids",
          "type": "uint32[]"
        },
        {
          "internalType": "address",
          "name": "_whitelistAddress",
          "type": "address"
        },
        {
          "internalType": "bytes",
          "name": "_options",
          "type": "bytes"
        },
        {
          "internalType": "bool",
          "name": "status",
          "type": "bool"
        }
      ],
      "name": "changeWhitelist",
      "outputs": [],
      "stateMutability": "payable",
      "type": "function"
    },
    {
      "inputs": [
        {
          "internalType": "uint32",
          "name": "_eid",
          "type": "uint32"
        },
        {
          "internalType": "uint16",
          "name": "_msgType",
          "type": "uint16"
        },
        {
          "internalType": "bytes",
          "name": "_extraOptions",
          "type": "bytes"
        }
      ],
      "name": "combineOptions",
      "outputs": [
        {
          "internalType": "bytes",
          "name": "",
          "type": "bytes"
        }
      ],
      "stateMutability": "view",
      "type": "function"
    },
    {
      "inputs": [],
      "name": "decimals",
      "outputs": [
        {
          "internalType": "uint8",
          "name": "",
          "type": "uint8"
        }
      ],
      "stateMutability": "view",
      "type": "function"
    },
    {
      "inputs": [],
      "name": "endpoint",
      "outputs": [
        {
          "internalType": "contract ILayerZeroEndpointV2",
          "name": "",
          "type": "address"
        }
      ],
      "stateMutability": "view",
      "type": "function"
    },
    {
      "inputs": [
        {
          "internalType": "uint32",
          "name": "eid",
          "type": "uint32"
        },
        {
          "internalType": "uint16",
          "name": "msgType",
          "type": "uint16"
        }
      ],
      "name": "enforcedOptions",
      "outputs": [
        {
          "internalType": "bytes",
          "name": "enforcedOption",
          "type": "bytes"
        }
      ],
      "stateMutability": "view",
      "type": "function"
    },
    {
      "inputs": [
        {
          "internalType": "address",
          "name": "from",
          "type": "address"
        },
        {
          "internalType": "address",
          "name": "to",
          "type": "address"
        },
        {
          "internalType": "uint256",
          "name": "",
          "type": "uint256"
        },
        {
          "internalType": "uint256",
          "name": "amount",
          "type": "uint256"
        }
      ],
      "name": "forceTransfer",
      "outputs": [],
      "stateMutability": "nonpayable",
      "type": "function"
    },
    {
      "inputs": [
        {
          "internalType": "address",
          "name": "user",
          "type": "address"
        },
        {
          "internalType": "uint256",
          "name": "",
          "type": "uint256"
        }
      ],
      "name": "getFrozen",
      "outputs": [
        {
          "internalType": "uint256",
          "name": "amount",
          "type": "uint256"
        }
      ],
      "stateMutability": "view",
      "type": "function"
    },
    {
      "inputs": [
        {
          "internalType": "bytes32",
          "name": "role",
          "type": "bytes32"
        }
      ],
      "name": "getRoleAdmin",
      "outputs": [
        {
          "internalType": "bytes32",
          "name": "",
          "type": "bytes32"
        }
      ],
      "stateMutability": "view",
      "type": "function"
    },
    {
      "inputs": [
        {
          "internalType": "bytes32",
          "name": "role",
          "type": "bytes32"
        },
        {
          "internalType": "uint256",
          "name": "index",
          "type": "uint256"
        }
      ],
      "name": "getRoleMember",
      "outputs": [
        {
          "internalType": "address",
          "name": "",
          "type": "address"
        }
      ],
      "stateMutability": "view",
      "type": "function"
    },
    {
      "inputs": [
        {
          "internalType": "bytes32",
          "name": "role",
          "type": "bytes32"
        }
      ],
      "name": "getRoleMemberCount",
      "outputs": [
        {
          "internalType": "uint256",
          "name": "",
          "type": "uint256"
        }
      ],
      "stateMutability": "view",
      "type": "function"
    },
    {
      "inputs": [
        {
          "internalType": "bytes32",
          "name": "role",
          "type": "bytes32"
        }
      ],
      "name": "getRoleMembers",
      "outputs": [
        {
          "internalType": "address[]",
          "name": "",
          "type": "address[]"
        }
      ],
      "stateMutability": "view",
      "type": "function"
    },
    {
      "inputs": [
        {
          "internalType": "bytes32",
          "name": "role",
          "type": "bytes32"
        },
        {
          "internalType": "address",
          "name": "account",
          "type": "address"
        }
      ],
      "name": "grantRole",
      "outputs": [],
      "stateMutability": "nonpayable",
      "type": "function"
    },
    {
      "inputs": [
        {
          "internalType": "bytes32",
          "name": "role",
          "type": "bytes32"
        },
        {
          "internalType": "address",
          "name": "account",
          "type": "address"
        }
      ],
      "name": "hasRole",
      "outputs": [
        {
          "internalType": "bool",
          "name": "",
          "type": "bool"
        }
      ],
      "stateMutability": "view",
      "type": "function"
    },
    {
      "inputs": [
        {
          "components": [
            {
              "internalType": "uint32",
              "name": "srcEid",
              "type": "uint32"
            },
            {
              "internalType": "bytes32",
              "name": "sender",
              "type": "bytes32"
            },
            {
              "internalType": "uint64",
              "name": "nonce",
              "type": "uint64"
            }
          ],
          "internalType": "struct Origin",
          "name": "",
          "type": "tuple"
        },
        {
          "internalType": "bytes",
          "name": "",
          "type": "bytes"
        },
        {
          "internalType": "address",
          "name": "_sender",
          "type": "address"
        }
      ],
      "name": "isComposeMsgSender",
      "outputs": [
        {
          "internalType": "bool",
          "name": "",
          "type": "bool"
        }
      ],
      "stateMutability": "view",
      "type": "function"
    },
    {
      "inputs": [
        {
          "internalType": "address",
          "name": "from",
          "type": "address"
        },
        {
          "internalType": "address",
          "name": "to",
          "type": "address"
        },
        {
          "internalType": "uint256",
          "name": "",
          "type": "uint256"
        },
        {
          "internalType": "uint256",
          "name": "amount",
          "type": "uint256"
        }
      ],
      "name": "isTransferAllowed",
      "outputs": [
        {
          "internalType": "bool",
          "name": "allowed",
          "type": "bool"
        }
      ],
      "stateMutability": "view",
      "type": "function"
    },
    {
      "inputs": [
        {
          "internalType": "address",
          "name": "user",
          "type": "address"
        }
      ],
      "name": "isUserAllowed",
      "outputs": [
        {
          "internalType": "bool",
          "name": "allowed",
          "type": "bool"
        }
      ],
      "stateMutability": "view",
      "type": "function"
    },
    {
      "inputs": [
        {
          "internalType": "address",
          "name": "user",
          "type": "address"
        }
      ],
      "name": "isWhitelisted",
      "outputs": [
        {
          "internalType": "bool",
          "name": "whitelisted",
          "type": "bool"
        }
      ],
      "stateMutability": "view",
      "type": "function"
    },
    {
      "inputs": [
        {
          "components": [
            {
              "internalType": "uint32",
              "name": "srcEid",
              "type": "uint32"
            },
            {
              "internalType": "bytes32",
              "name": "sender",
              "type": "bytes32"
            },
            {
              "internalType": "uint64",
              "name": "nonce",
              "type": "uint64"
            }
          ],
          "internalType": "struct Origin",
          "name": "_origin",
          "type": "tuple"
        },
        {
          "internalType": "bytes32",
          "name": "_guid",
          "type": "bytes32"
        },
        {
          "internalType": "bytes",
          "name": "_message",
          "type": "bytes"
        },
        {
          "internalType": "address",
          "name": "_executor",
          "type": "address"
        },
        {
          "internalType": "bytes",
          "name": "_extraData",
          "type": "bytes"
        }
      ],
      "name": "lzReceive",
      "outputs": [],
      "stateMutability": "payable",
      "type": "function"
    },
    {
      "inputs": [
        {
          "internalType": "address",
          "name": "user",
          "type": "address"
        },
        {
          "internalType": "uint256",
          "name": "amount",
          "type": "uint256"
        }
      ],
      "name": "mintRWA",
      "outputs": [],
      "stateMutability": "nonpayable",
      "type": "function"
    },
    {
      "inputs": [],
      "name": "name",
      "outputs": [
        {
          "internalType": "string",
          "name": "",
          "type": "string"
        }
      ],
      "stateMutability": "view",
      "type": "function"
    },
    {
      "inputs": [
        {
          "internalType": "uint32",
          "name": "",
          "type": "uint32"
        },
        {
          "internalType": "bytes32",
          "name": "",
          "type": "bytes32"
        }
      ],
      "name": "nextNonce",
      "outputs": [
        {
          "internalType": "uint64",
          "name": "nonce",
          "type": "uint64"
        }
      ],
      "stateMutability": "view",
      "type": "function"
    },
    {
      "inputs": [],
      "name": "oAppVersion",
      "outputs": [
        {
          "internalType": "uint64",
          "name": "senderVersion",
          "type": "uint64"
        },
        {
          "internalType": "uint64",
          "name": "receiverVersion",
          "type": "uint64"
        }
      ],
      "stateMutability": "pure",
      "type": "function"
    },
    {
      "inputs": [],
      "name": "owner",
      "outputs": [
        {
          "internalType": "address",
          "name": "",
          "type": "address"
        }
      ],
      "stateMutability": "view",
      "type": "function"
    },
    {
      "inputs": [
        {
          "internalType": "uint32",
          "name": "eid",
          "type": "uint32"
        }
      ],
      "name": "peers",
      "outputs": [
        {
          "internalType": "bytes32",
          "name": "peer",
          "type": "bytes32"
        }
      ],
      "stateMutability": "view",
      "type": "function"
    },
    {
      "inputs": [
        {
          "internalType": "uint32[]",
          "name": "_dstEids",
          "type": "uint32[]"
        },
        {
          "internalType": "address",
          "name": "_userAddress",
          "type": "address"
        },
        {
          "internalType": "uint256",
          "name": "_amount",
          "type": "uint256"
        },
        {
          "internalType": "bytes",
          "name": "_options",
          "type": "bytes"
        },
        {
          "internalType": "bool",
          "name": "_payInLzToken",
          "type": "bool"
        }
      ],
      "name": "quoteBatchBurn",
      "outputs": [
        {
          "components": [
            {
              "internalType": "uint256",
              "name": "nativeFee",
              "type": "uint256"
            },
            {
              "internalType": "uint256",
              "name": "lzTokenFee",
              "type": "uint256"
            }
          ],
          "internalType": "struct MessagingFee",
          "name": "totalFee",
          "type": "tuple"
        }
      ],
      "stateMutability": "view",
      "type": "function"
    },
    {
      "inputs": [
        {
          "internalType": "uint32[]",
          "name": "_dstEids",
          "type": "uint32[]"
        },
        {
          "internalType": "address",
          "name": "_userAddress",
          "type": "address"
        },
        {
          "internalType": "uint256",
          "name": "_amount",
          "type": "uint256"
        },
        {
          "internalType": "bytes",
          "name": "_options",
          "type": "bytes"
        },
        {
          "internalType": "bool",
          "name": "_payInLzToken",
          "type": "bool"
        }
      ],
      "name": "quoteBatchFreeze",
      "outputs": [
        {
          "components": [
            {
              "internalType": "uint256",
              "name": "nativeFee",
              "type": "uint256"
            },
            {
              "internalType": "uint256",
              "name": "lzTokenFee",
              "type": "uint256"
            }
          ],
          "internalType": "struct MessagingFee",
          "name": "totalFee",
          "type": "tuple"
        }
      ],
      "stateMutability": "view",
      "type": "function"
    },
    {
      "inputs": [
        {
          "internalType": "uint32[]",
          "name": "_dstEids",
          "type": "uint32[]"
        },
        {
          "internalType": "address",
          "name": "_userAddress",
          "type": "address"
        },
        {
          "internalType": "uint256",
          "name": "_amount",
          "type": "uint256"
        },
        {
          "internalType": "bytes",
          "name": "_options",
          "type": "bytes"
        },
        {
          "internalType": "bool",
          "name": "_payInLzToken",
          "type": "bool"
        }
      ],
      "name": "quoteBatchMint",
      "outputs": [
        {
          "components": [
            {
              "internalType": "uint256",
              "name": "nativeFee",
              "type": "uint256"
            },
            {
              "internalType": "uint256",
              "name": "lzTokenFee",
              "type": "uint256"
            }
          ],
          "internalType": "struct MessagingFee",
          "name": "totalFee",
          "type": "tuple"
        }
      ],
      "stateMutability": "view",
      "type": "function"
    },
    {
      "inputs": [
        {
          "internalType": "uint32[]",
          "name": "_dstEids",
          "type": "uint32[]"
        },
        {
          "internalType": "address",
          "name": "_whitelistAddress",
          "type": "address"
        },
        {
          "internalType": "bytes",
          "name": "_options",
          "type": "bytes"
        },
        {
          "internalType": "bool",
          "name": "status",
          "type": "bool"
        },
        {
          "internalType": "bool",
          "name": "_payInLzToken",
          "type": "bool"
        }
      ],
      "name": "quoteBatchWhitelist",
      "outputs": [
        {
          "components": [
            {
              "internalType": "uint256",
              "name": "nativeFee",
              "type": "uint256"
            },
            {
              "internalType": "uint256",
              "name": "lzTokenFee",
              "type": "uint256"
            }
          ],
          "internalType": "struct MessagingFee",
          "name": "totalFee",
          "type": "tuple"
        }
      ],
      "stateMutability": "view",
      "type": "function"
    },
    {
      "inputs": [
        {
          "internalType": "uint32",
          "name": "_dstEid",
          "type": "uint32"
        },
        {
          "internalType": "uint256",
          "name": "_amount",
          "type": "uint256"
        },
        {
          "internalType": "bytes",
          "name": "_options",
          "type": "bytes"
        },
        {
          "internalType": "bool",
          "name": "_payInLzToken",
          "type": "bool"
        }
      ],
      "name": "quoteSendRWA",
      "outputs": [
        {
          "components": [
            {
              "internalType": "uint256",
              "name": "nativeFee",
              "type": "uint256"
            },
            {
              "internalType": "uint256",
              "name": "lzTokenFee",
              "type": "uint256"
            }
          ],
          "internalType": "struct MessagingFee",
          "name": "fee",
          "type": "tuple"
        }
      ],
      "stateMutability": "view",
      "type": "function"
    },
    {
      "inputs": [],
      "name": "renounceOwnership",
      "outputs": [],
      "stateMutability": "nonpayable",
      "type": "function"
    },
    {
      "inputs": [
        {
          "internalType": "bytes32",
          "name": "role",
          "type": "bytes32"
        },
        {
          "internalType": "address",
          "name": "callerConfirmation",
          "type": "address"
        }
      ],
      "name": "renounceRole",
      "outputs": [],
      "stateMutability": "nonpayable",
      "type": "function"
    },
    {
      "inputs": [
        {
          "internalType": "bytes32",
          "name": "role",
          "type": "bytes32"
        },
        {
          "internalType": "address",
          "name": "account",
          "type": "address"
        }
      ],
      "name": "revokeRole",
      "outputs": [],
      "stateMutability": "nonpayable",
      "type": "function"
    },
    {
      "inputs": [
        {
          "internalType": "uint32",
          "name": "_dstEid",
          "type": "uint32"
        },
        {
          "internalType": "uint256",
          "name": "_amount",
          "type": "uint256"
        },
        {
          "internalType": "bytes",
          "name": "_options",
          "type": "bytes"
        }
      ],
      "name": "sendRWA",
      "outputs": [],
      "stateMutability": "payable",
      "type": "function"
    },
    {
      "inputs": [
        {
          "internalType": "address",
          "name": "_delegate",
          "type": "address"
        }
      ],
      "name": "setDelegate",
      "outputs": [],
      "stateMutability": "nonpayable",
      "type": "function"
    },
    {
      "inputs": [
        {
          "components": [
            {
              "internalType": "uint32",
              "name": "eid",
              "type": "uint32"
            },
            {
              "internalType": "uint16",
              "name": "msgType",
              "type": "uint16"
            },
            {
              "internalType": "bytes",
              "name": "options",
              "type": "bytes"
            }
          ],
          "internalType": "struct EnforcedOptionParam[]",
          "name": "_enforcedOptions",
          "type": "tuple[]"
        }
      ],
      "name": "setEnforcedOptions",
      "outputs": [],
      "stateMutability": "nonpayable",
      "type": "function"
    },
    {
      "inputs": [
        {
          "internalType": "address",
          "name": "user",
          "type": "address"
        },
        {
          "internalType": "uint256",
          "name": "",
          "type": "uint256"
        },
        {
          "internalType": "uint256",
          "name": "amount",
          "type": "uint256"
        }
      ],
      "name": "setFrozen",
      "outputs": [],
      "stateMutability": "nonpayable",
      "type": "function"
    },
    {
      "inputs": [
        {
          "internalType": "uint32",
          "name": "_eid",
          "type": "uint32"
        },
        {
          "internalType": "bytes32",
          "name": "_peer",
          "type": "bytes32"
        }
      ],
      "name": "setPeer",
      "outputs": [],
      "stateMutability": "nonpayable",
      "type": "function"
    },
    {
      "inputs": [
        {
          "internalType": "bytes4",
          "name": "interfaceId",
          "type": "bytes4"
        }
      ],
      "name": "supportsInterface",
      "outputs": [
        {
          "internalType": "bool",
          "name": "",
          "type": "bool"
        }
      ],
      "stateMutability": "view",
      "type": "function"
    },
    {
      "inputs": [],
      "name": "symbol",
      "outputs": [
        {
          "internalType": "string",
          "name": "",
          "type": "string"
        }
      ],
      "stateMutability": "view",
      "type": "function"
    },
    {
      "inputs": [],
      "name": "totalSupply",
      "outputs": [
        {
          "internalType": "uint256",
          "name": "",
          "type": "uint256"
        }
      ],
      "stateMutability": "view",
      "type": "function"
    },
    {
      "inputs": [
        {
          "internalType": "address",
          "name": "to",
          "type": "address"
        },
        {
          "internalType": "uint256",
          "name": "value",
          "type": "uint256"
        }
      ],
      "name": "transfer",
      "outputs": [
        {
          "internalType": "bool",
          "name": "",
          "type": "bool"
        }
      ],
      "stateMutability": "nonpayable",
      "type": "function"
    },
    {
      "inputs": [
        {
          "internalType": "address",
          "name": "from",
          "type": "address"
        },
        {
          "internalType": "address",
          "name": "to",
          "type": "address"
        },
        {
          "internalType": "uint256",
          "name": "value",
          "type": "uint256"
        }
      ],
      "name": "transferFrom",
      "outputs": [
        {
          "internalType": "bool",
          "name": "",
          "type": "bool"
        }
      ],
      "stateMutability": "nonpayable",
      "type": "function"
    },
    {
      "inputs": [
        {
          "internalType": "address",
          "name": "newOwner",
          "type": "address"
        }
      ],
      "name": "transferOwnership",
      "outputs": [],
      "stateMutability": "nonpayable",
      "type": "function"
    }
  ],
  "transactionHash": "0x943409f37238b5acfef05c9610b3e81fa902908c5a350d5e505d6dcc7ebe6402",
  "args": [
    "0x6EDCE65403992e310A62460808c4b910D972f10f",
    "0x6DA658f5840FeCc688a4bd007eF6B314d9138135",
    "RWALink-Test",
    "RWAT"
  ],
  "numDeployments": 5,
  "solcInputHash": "bbf5cbfed79cc1aed0bc3182b2117655",
  "bytecode": "0x60a06040523480156200001157600080fd5b5060405162004e9438038062004e94833981016040819052620000349162000478565b818185858181806001600160a01b0381166200006a57604051631e4fbdf760e01b81526000600482015260240160405180910390fd5b6200007581620001fa565b506001600160a01b038083166080528116620000a457604051632d618d8160e21b815260040160405180910390fd5b60805160405163ca5eb5e160e01b81526001600160a01b0383811660048301529091169063ca5eb5e190602401600060405180830381600087803b158015620000ec57600080fd5b505af115801562000101573d6000803e3d6000fd5b505050505050505081600690816200011a919062000599565b50600762000129828262000599565b506200013b915060009050846200024a565b50620001687f9f2df0fed2c77648de5860a4cc508cd0818c85b8b8a1ab4ceeef8d981c8956a6846200024a565b50620001957f3c11d16cbaffd01df69ce1c404f6340ee057498f5f00246190ea54220576a848846200024a565b50620001c27f973ef39d76cc2c6090feab1c030bec6ab5db557f64df047a4c4f9b5953cf1df3846200024a565b50620001ef7fdc72ed553f2544c34465af23b847953efeb813428162d767f9ba5f4013be6760846200024a565b505050505062000665565b600080546001600160a01b038381166001600160a01b0319831681178455604051919092169283917f8be0079c531659141344cd1fd0a4f28419497f9722a3daafe3b4186f6b6457e09190a35050565b60008062000259848462000287565b905080156200027e5760008481526009602052604090206200027c908462000339565b505b90505b92915050565b60008281526008602090815260408083206001600160a01b038516845290915281205460ff16620003305760008381526008602090815260408083206001600160a01b03861684529091529020805460ff19166001179055620002e73390565b6001600160a01b0316826001600160a01b0316847f2f8788117e7eff1d82e926ec794901d17c78024a50270940304540a733656f0d60405160405180910390a450600162000281565b50600062000281565b60006200027e836001600160a01b0384166000818152600183016020526040812054620003305750815460018181018455600084815260208082209093018490558454848252828601909352604090209190915562000281565b80516001600160a01b0381168114620003ab57600080fd5b919050565b634e487b7160e01b600052604160045260246000fd5b600082601f830112620003d857600080fd5b81516001600160401b0380821115620003f557620003f5620003b0565b604051601f8301601f19908116603f01168101908282118183101715620004205762000420620003b0565b81604052838152602092508660208588010111156200043e57600080fd5b600091505b8382101562000462578582018301518183018401529082019062000443565b6000602085830101528094505050505092915050565b600080600080608085870312156200048f57600080fd5b6200049a8562000393565b9350620004aa6020860162000393565b60408601519093506001600160401b0380821115620004c857600080fd5b620004d688838901620003c6565b93506060870151915080821115620004ed57600080fd5b50620004fc87828801620003c6565b91505092959194509250565b600181811c908216806200051d57607f821691505b6020821081036200053e57634e487b7160e01b600052602260045260246000fd5b50919050565b601f82111562000594576000816000526020600020601f850160051c810160208610156200056f5750805b601f850160051c820191505b8181101562000590578281556001016200057b565b5050505b505050565b81516001600160401b03811115620005b557620005b5620003b0565b620005cd81620005c6845462000508565b8462000544565b602080601f831160018114620006055760008415620005ec5750858301515b600019600386901b1c1916600185901b17855562000590565b600085815260208120601f198616915b82811015620006365788860151825594840194600190910190840162000615565b5085821015620006555787850151600019600388901b60f8161c191681555b5050505050600190811b01905550565b6080516147e9620006ab6000396000818161070101528181610e9301528181611e81015281816127b701528181612c35015281816132b7015261337001526147e96000f3fe6080604052600436106103ad5760003560e01c806382413eac116101e7578063bc70b3541161010d578063d3e8a9ab116100a0578063dd62ed3e1161006f578063dd62ed3e14610b5e578063f2fde38b14610ba4578063f94808ec14610bc4578063ff7bd03d14610bd957600080fd5b8063d3e8a9ab14610ad7578063d539139314610af7578063d547741f14610b2b578063d97706df14610b4b57600080fd5b8063ca5eb5e1116100dc578063ca5eb5e114610a64578063cc3150ea14610a84578063cc3e595414610aa4578063cfab8a0f14610ac457600080fd5b8063bc70b354146109f1578063c23e7ce914610a11578063c5ada44e14610a31578063ca15c87314610a4457600080fd5b8063a217fddf11610185578063a9059cbb11610154578063a9059cbb14610964578063a90bf6ea14610984578063b98bd070146109a4578063bb0b6a53146109c457600080fd5b8063a217fddf146106da578063a271932f14610902578063a3246ad314610917578063a52ba4e81461094457600080fd5b80638da5cb5b116101c15780638da5cb5b1461088f5780639010d07c146108ad57806391d14854146108cd57806395d89b41146108ed57600080fd5b806382413eac1461083857806384386113146108675780638b8f070f1461087c57600080fd5b8063313ce567116102d757806355f2f0ef1161026a57806370a082311161023957806370a0823114610794578063715018a6146107b45780637a997ab7146107c95780637d25a05e146107fd57600080fd5b806355f2f0ef146106da5780635e280f11146106ef5780636439fd751461073b578063705bd6bd1461075d57600080fd5b806339f648aa116102a657806339f648aa1461064a5780633a3950061461066a5780633af32abf1461068a5780635535d461146106ba57600080fd5b8063313ce567146105ce5780633400288b146105ea57806335438b1f1461060a57806336568abe1461062a57600080fd5b806318160ddd1161034f578063248a9ca31161031e578063248a9ca314610537578063253e4bcb14610567578063282c51f31461057a5780632f2ff15d146105ae57600080fd5b806318160ddd146104bb578063187944df146104da5780631f5e1334146104ef57806323b872dd1461051757600080fd5b80630c42fb311161038b5780630c42fb31146104295780630de5cab61461044b57806313137d651461048657806317442b701461049957600080fd5b806301ffc9a7146103b257806306fdde03146103e7578063095ea7b314610409575b600080fd5b3480156103be57600080fd5b506103d26103cd366004613792565b610bf9565b60405190151581526020015b60405180910390f35b3480156103f357600080fd5b506103fc610c24565b6040516103de919061380c565b34801561041557600080fd5b506103d2610424366004613834565b610cb6565b34801561043557600080fd5b50610449610444366004613834565b610cce565b005b34801561045757600080fd5b5061046b6104663660046139d3565b610da0565b604080518251815260209283015192810192909252016103de565b610449610494366004613a82565b610e91565b3480156104a557600080fd5b50604080516001815260026020820152016103de565b3480156104c757600080fd5b506005545b6040519081526020016103de565b3480156104e657600080fd5b506104cc600381565b3480156104fb57600080fd5b50610504600181565b60405161ffff90911681526020016103de565b34801561052357600080fd5b506103d2610532366004613b21565b610f4c565b34801561054357600080fd5b506104cc610552366004613b62565b60009081526008602052604090206001015490565b610449610575366004613b7b565b610f70565b34801561058657600080fd5b506104cc7f3c11d16cbaffd01df69ce1c404f6340ee057498f5f00246190ea54220576a84881565b3480156105ba57600080fd5b506104496105c9366004613c03565b6111de565b3480156105da57600080fd5b50604051601281526020016103de565b3480156105f657600080fd5b50610449610605366004613c33565b611209565b34801561061657600080fd5b5061046b610625366004613c4f565b61121f565b34801561063657600080fd5b50610449610645366004613c03565b61127f565b34801561065657600080fd5b506103d2610665366004613cbd565b6112b7565b34801561067657600080fd5b50610449610685366004613834565b61131e565b34801561069657600080fd5b506103d26106a5366004613d03565b600a6020526000908152604090205460ff1681565b3480156106c657600080fd5b506103fc6106d5366004613d32565b61144d565b3480156106e657600080fd5b506104cc600081565b3480156106fb57600080fd5b506107237f000000000000000000000000000000000000000000000000000000000000000081565b6040516001600160a01b0390911681526020016103de565b34801561074757600080fd5b506104cc60008051602061479483398151915281565b34801561076957600080fd5b506104cc610778366004613834565b506001600160a01b03166000908152600b602052604090205490565b3480156107a057600080fd5b506104cc6107af366004613d03565b6114f2565b3480156107c057600080fd5b5061044961150d565b3480156107d557600080fd5b506104cc7fdc72ed553f2544c34465af23b847953efeb813428162d767f9ba5f4013be676081565b34801561080957600080fd5b50610820610818366004613c33565b600092915050565b6040516001600160401b0390911681526020016103de565b34801561084457600080fd5b506103d2610853366004613d65565b6001600160a01b0381163014949350505050565b34801561087357600080fd5b506104cc600181565b61044961088a366004613dcb565b611521565b34801561089b57600080fd5b506000546001600160a01b0316610723565b3480156108b957600080fd5b506107236108c8366004613e3b565b611795565b3480156108d957600080fd5b506103d26108e8366004613c03565b6117b4565b3480156108f957600080fd5b506103fc6117df565b34801561090e57600080fd5b506104cc600281565b34801561092357600080fd5b50610937610932366004613b62565b6117ee565b6040516103de9190613e5d565b34801561095057600080fd5b506103d261095f366004613d03565b611808565b34801561097057600080fd5b506103d261097f366004613834565b611832565b34801561099057600080fd5b5061046b61099f3660046139d3565b611840565b3480156109b057600080fd5b506104496109bf366004613eaa565b611910565b3480156109d057600080fd5b506104cc6109df366004613f1e565b60016020526000908152604090205481565b3480156109fd57600080fd5b506103fc610a0c366004613f39565b61192a565b348015610a1d57600080fd5b5061046b610a2c366004613f99565b611ad2565b610449610a3f366004613b7b565b611bbb565b348015610a5057600080fd5b506104cc610a5f366004613b62565b611e43565b348015610a7057600080fd5b50610449610a7f366004613d03565b611e5a565b348015610a9057600080fd5b50610449610a9f36600461402b565b611ee0565b348015610ab057600080fd5b5061046b610abf3660046139d3565b611f77565b610449610ad2366004613b7b565b612047565b348015610ae357600080fd5b50610449610af2366004613cbd565b61224f565b348015610b0357600080fd5b506104cc7f9f2df0fed2c77648de5860a4cc508cd0818c85b8b8a1ab4ceeef8d981c8956a681565b348015610b3757600080fd5b50610449610b46366004613c03565b61232b565b610449610b59366004614060565b612350565b348015610b6a57600080fd5b506104cc610b793660046140a1565b6001600160a01b03918216600090815260046020908152604080832093909416825291909152205490565b348015610bb057600080fd5b50610449610bbf366004613d03565b612480565b348015610bd057600080fd5b506104cc600481565b348015610be557600080fd5b506103d2610bf43660046140cf565b6124be565b60006001600160e01b03198216635a05180f60e01b1480610c1e5750610c1e826124f4565b92915050565b606060068054610c33906140eb565b80601f0160208091040260200160405190810160405280929190818152602001828054610c5f906140eb565b8015610cac5780601f10610c8157610100808354040283529160200191610cac565b820191906000526020600020905b815481529060010190602001808311610c8f57829003601f168201915b5050505050905090565b600033610cc4818585612529565b5060019392505050565b7f9f2df0fed2c77648de5860a4cc508cd0818c85b8b8a1ab4ceeef8d981c8956a6610cf881612536565b6001600160a01b038316610d275760405162461bcd60e51b8152600401610d1e9061411f565b60405180910390fd5b610d3083611808565b610d4c5760405162461bcd60e51b8152600401610d1e90614146565b610d5860008484612540565b826001600160a01b03167f0f6798a560793a54c3bcfe86a93cde1e73087d944c0ea20544137d412139688583604051610d9391815260200190565b60405180910390a2505050565b604080518082019091526000808252602082015286516000610dc382600161418a565b610dcd908861419d565b9050600060038983604051602001610de7939291906141bf565b604051602081830303815290604052905060008060005b85811015610e705760008d8281518110610e1a57610e1a6141de565b602002602001015190506000610e338260018e8e61192a565b90506000610e438388848e6127a1565b8051909150610e52908761418a565b9550610e5f60008661418a565b94505060019092019150610dfe9050565b506040805180820190915291825260208201529a9950505050505050505050565b7f00000000000000000000000000000000000000000000000000000000000000006001600160a01b03163314610edc576040516391ac5e4f60e01b8152336004820152602401610d1e565b60208701803590610ef690610ef1908a613f1e565b612882565b14610f3457610f086020880188613f1e565b60405163309afaf360e21b815263ffffffff909116600482015260208801356024820152604401610d1e565b610f43878787878787876128be565b50505050505050565b600033610f5a858285612b2a565b610f65858585612ba3565b506001949350505050565b7f9f2df0fed2c77648de5860a4cc508cd0818c85b8b8a1ab4ceeef8d981c8956a6610f9a81612536565b6001600160a01b038516610fc05760405162461bcd60e51b8152600401610d1e9061411f565b610fc985611808565b610fe55760405162461bcd60e51b8152600401610d1e90614146565b85516000610ff482600161418a565b610ffe908761419d565b9050600060018883604051602001611018939291906141bf565b60405160208183030381529060405290506000836001600160401b0381111561104357611043613860565b60405190808252806020026020018201604052801561108857816020015b60408051808201909152600080825260208201528152602001906001900390816110615790505b5090506000805b858110156111385760006110bf8d83815181106110ae576110ae6141de565b602002602001015160018c8c61192a565b90506110e78d83815181106110d6576110d66141de565b6020026020010151868360006127a1565b8483815181106110f9576110f96141de565b6020026020010181905250838281518110611116576111166141de565b6020026020010151600001518361112d919061418a565b92505060010161108f565b50803410156111595760405162461bcd60e51b8152600401610d1e906141f4565b60005b858110156111c657600061117b8d83815181106110ae576110ae6141de565b90506111bc8d8381518110611192576111926141de565b602002602001015186838786815181106111ae576111ae6141de565b602002602001015133612c02565b505060010161115c565b506111d18a85610cce565b5050505050505050505050565b6000828152600860205260409020600101546111f981612536565b6112038383612d02565b50505050565b611211612d37565b61121b8282612d64565b5050565b604080518082019091526000808252602082015260006004338760405160200161124b939291906141bf565b6040516020818303038152906040529050611274878261126e8a60018a8a61192a565b866127a1565b979650505050505050565b6001600160a01b03811633146112a85760405163334bd91960e11b815260040160405180910390fd5b6112b28282612db9565b505050565b6001600160a01b0384166000908152600b60205260408120546112d9866114f2565b6112e3919061421e565b8211156112f257506000611316565b6112fb85611808565b158061130d575061130b84611808565b155b15610f65575060005b949350505050565b7f3c11d16cbaffd01df69ce1c404f6340ee057498f5f00246190ea54220576a84861134881612536565b6001600160a01b03831661136e5760405162461bcd60e51b8152600401610d1e9061411f565b61137783611808565b6113935760405162461bcd60e51b8152600401610d1e90614146565b61139c836114f2565b8211156113bb5760405162461bcd60e51b8152600401610d1e90614231565b6001600160a01b0383166000908152600b60205260409020546113dd846114f2565b6113e7919061421e565b8211156114065760405162461bcd60e51b8152600401610d1e9061425f565b61141283600084612540565b826001600160a01b03167fcc16f5dbb4873280815c1ee09dbd06736cffcc184412cf7a71a0fdb75d397ca583604051610d9391815260200190565b600260209081526000928352604080842090915290825290208054611471906140eb565b80601f016020809104026020016040519081016040528092919081815260200182805461149d906140eb565b80156114ea5780601f106114bf576101008083540402835291602001916114ea565b820191906000526020600020905b8154815290600101906020018083116114cd57829003601f168201915b505050505081565b6001600160a01b031660009081526003602052604090205490565b611515612d37565b61151f6000612de6565b565b7fdc72ed553f2544c34465af23b847953efeb813428162d767f9ba5f4013be676061154b81612536565b6001600160a01b0385166115715760405162461bcd60e51b8152600401610d1e9061411f565b604080516000602082018190526001600160a01b03881692820192909252831515606082015260800160408051601f1981840301815291905287519091506000816001600160401b038111156115c9576115c9613860565b60405190808252806020026020018201604052801561160e57816020015b60408051808201909152600080825260208201528152602001906001900390816115e75790505b5090506000805b838110156116ad5760006116348c83815181106110ae576110ae6141de565b905061165c8c838151811061164b5761164b6141de565b6020026020010151878360006127a1565b84838151811061166e5761166e6141de565b602002602001018190525083828151811061168b5761168b6141de565b602002602001015160000151836116a2919061418a565b925050600101611615565b50803410156116ce5760405162461bcd60e51b8152600401610d1e906141f4565b60005b8381101561172d5760006116f08c83815181106110ae576110ae6141de565b90506117238c8381518110611707576117076141de565b602002602001015187838786815181106111ae576111ae6141de565b50506001016116d1565b506001600160a01b0389166000818152600a6020908152604091829020805460ff19168a151590811790915591519182527fa54714518c5d275fdcd3d2a461e4858e4e8cb04fb93cd0bca9d6d34115f26440910160405180910390a250505050505050505050565b60008281526009602052604081206117ad9083612e36565b9392505050565b60009182526008602090815260408084206001600160a01b0393909316845291905290205460ff1690565b606060078054610c33906140eb565b6000818152600960205260409020606090610c1e90612e42565b6001600160a01b0381166000908152600a602052604081205460ff161561182d575060015b919050565b600033610cc4818585612ba3565b60408051808201909152600080825260208201528651600061186382600161418a565b61186d908861419d565b9050600060018983604051602001611887939291906141bf565b604051602081830303815290604052905060008060005b85811015610e705760008d82815181106118ba576118ba6141de565b6020026020010151905060006118d38260018e8e61192a565b905060006118e38388848e6127a1565b80519091506118f2908761418a565b95506118ff60008661418a565b9450506001909201915061189e9050565b611918612d37565b61121b611925828461428a565b612e4f565b63ffffffff8416600090815260026020908152604080832061ffff8716845290915281208054606092919061195e906140eb565b80601f016020809104026020016040519081016040528092919081815260200182805461198a906140eb565b80156119d75780601f106119ac576101008083540402835291602001916119d7565b820191906000526020600020905b8154815290600101906020018083116119ba57829003601f168201915b505050505090508051600003611a275783838080601f0160208091040260200160405190810160405280939291908181526020018383808284376000920191909152509294506113169350505050565b6000839003611a37579050611316565b60028310611ab557611a7e84848080601f016020809104026020016040519081016040528093929190818152602001838380828437600092019190915250612f6192505050565b80611a8c84600281886143a7565b604051602001611a9e939291906143d1565b604051602081830303815290604052915050611316565b8383604051639a6d49cd60e01b8152600401610d1e9291906143f9565b6040805180820190915260008082526020820152604080516000602082018190526001600160a01b03891692820192909252841515606082015260800160408051601f198184030181529190528851909150600080805b83811015611b9b5760008c8281518110611b4557611b456141de565b602002602001015190506000611b5e8260018e8e61192a565b90506000611b6e8389848d6127a1565b8051909150611b7d908761418a565b9550611b8a60008661418a565b94505060019092019150611b299050565b506040805180820190915291825260208201529998505050505050505050565b7f3c11d16cbaffd01df69ce1c404f6340ee057498f5f00246190ea54220576a848611be581612536565b6001600160a01b038516611c0b5760405162461bcd60e51b8152600401610d1e9061411f565b611c1485611808565b611c305760405162461bcd60e51b8152600401610d1e90614146565b85516000611c3f82600161418a565b611c49908761419d565b9050611c54876114f2565b811115611c735760405162461bcd60e51b8152600401610d1e90614231565b6001600160a01b0387166000908152600b6020526040902054611c95886114f2565b611c9f919061421e565b811115611cbe5760405162461bcd60e51b8152600401610d1e9061425f565b600060028883604051602001611cd6939291906141bf565b60405160208183030381529060405290506000836001600160401b03811115611d0157611d01613860565b604051908082528060200260200182016040528015611d4657816020015b6040805180820190915260008082526020820152815260200190600190039081611d1f5790505b5090506000805b85811015611dd4576000611d6c8d83815181106110ae576110ae6141de565b9050611d838d83815181106110d6576110d66141de565b848381518110611d9557611d956141de565b6020026020010181905250838281518110611db257611db26141de565b60200260200101516000015183611dc9919061418a565b925050600101611d4d565b5080341015611df55760405162461bcd60e51b8152600401610d1e906141f4565b60005b85811015611e38576000611e178d83815181106110ae576110ae6141de565b9050611e2e8d8381518110611192576111926141de565b5050600101611df8565b506111d18a8561131e565b6000818152600960205260408120610c1e90612f8d565b611e62612d37565b60405163ca5eb5e160e01b81526001600160a01b0382811660048301527f0000000000000000000000000000000000000000000000000000000000000000169063ca5eb5e190602401600060405180830381600087803b158015611ec557600080fd5b505af1158015611ed9573d6000803e3d6000fd5b5050505050565b600080516020614794833981519152611ef881612536565b611f01846114f2565b821115611f205760405162461bcd60e51b8152600401610d1e90614231565b6001600160a01b0384166000818152600b60209081526040808320869055518581529192917f7b0c29e799ed468266b4d070c03070137a95cb869c5eb7c18063fb7b1a7a09c591015b60405180910390a350505050565b604080518082019091526000808252602082015286516000611f9a82600161418a565b611fa4908861419d565b9050600060028983604051602001611fbe939291906141bf565b604051602081830303815290604052905060008060005b85811015610e705760008d8281518110611ff157611ff16141de565b60200260200101519050600061200a8260018e8e61192a565b9050600061201a8388848e6127a1565b8051909150612029908761418a565b955061203660008661418a565b94505060019092019150611fd59050565b60008051602061479483398151915261205f81612536565b6001600160a01b0385166120855760405162461bcd60e51b8152600401610d1e9061411f565b8551600061209482600161418a565b61209e908761419d565b90506120a9876114f2565b8111156120c85760405162461bcd60e51b8152600401610d1e90614231565b6000600388836040516020016120e0939291906141bf565b60405160208183030381529060405290506000836001600160401b0381111561210b5761210b613860565b60405190808252806020026020018201604052801561215057816020015b60408051808201909152600080825260208201528152602001906001900390816121295790505b5090506000805b858110156121de5760006121768d83815181106110ae576110ae6141de565b905061218d8d83815181106110d6576110d66141de565b84838151811061219f5761219f6141de565b60200260200101819052508382815181106121bc576121bc6141de565b602002602001015160000151836121d3919061418a565b925050600101612157565b50803410156121ff5760405162461bcd60e51b8152600401610d1e906141f4565b60005b858110156122425760006122218d83815181106110ae576110ae6141de565b90506122388d8381518110611192576111926141de565b5050600101612202565b506111d18a600086611ee0565b60008051602061479483398151915261226781612536565b61227084611808565b6122b85760405162461bcd60e51b8152602060048201526019602482015278455243373934334e6f74416c6c6f7765645573657228746f2960381b6044820152606401610d1e565b6122c28583612f97565b6122cd85858461306d565b836001600160a01b0316856001600160a01b03167fa7f01abbf5b7ec7bac7fb74feb5c1f54af9e430f18a33681c1b9149875339a4560008560405161231c929190918252602082015260400190565b60405180910390a35050505050565b60008281526008602052604090206001015461234681612536565b6112038383612db9565b61235933611808565b6123755760405162461bcd60e51b8152600401610d1e90614146565b61237e336114f2565b83111561239d5760405162461bcd60e51b8152600401610d1e90614231565b336000818152600b6020526040902054906123b7906114f2565b6123c1919061421e565b8311156123e05760405162461bcd60e51b8152600401610d1e9061425f565b6000600433856040516020016123f8939291906141bf565b6040516020818303038152906040529050612437858261241b886001888861192a565b6040518060400160405280348152602001600081525033612c02565b5061244433600086612540565b60405184815233907fcc16f5dbb4873280815c1ee09dbd06736cffcc184412cf7a71a0fdb75d397ca59060200160405180910390a25050505050565b612488612d37565b6001600160a01b0381166124b257604051631e4fbdf760e01b815260006004820152602401610d1e565b6124bb81612de6565b50565b60006020820180359060019083906124d69086613f1e565b63ffffffff1681526020810191909152604001600020541492915050565b60006001600160e01b03198216637965db0b60e01b1480610c1e57506301ffc9a760e01b6001600160e01b0319831614610c1e565b6112b2838383600161318a565b6124bb8133613251565b6001600160a01b0383161580159061256057506001600160a01b03821615155b1561272d5761256e836114f2565b8111156125f15760405162461bcd60e51b8152602060048201526044602482018190527f4945524332304572726f72732e4552433230496e73756666696369656e744261908201527f6c616e63652866726f6d2c2062616c616e63654f662866726f6d292c20616d6f606482015263756e742960e01b608482015260a401610d1e565b6001600160a01b0383166000908152600b6020526040902054612613846114f2565b61261d919061421e565b8111156126b85760405162461bcd60e51b815260206004820152605a60248201527f45524337393433496e73756666696369656e74556e66726f7a656e42616c616e60448201527f63652866726f6d2c20302c20616d6f756e742c2062616c616e63654f6628667260648201527f6f6d29202d205f66726f7a656e546f6b656e735b66726f6d5d29000000000000608482015260a401610d1e565b6126c583836000846112b7565b6127285760405162461bcd60e51b815260206004820152602e60248201527f455243373934334e6f74416c6c6f7765645472616e736665722866726f6d2c2060448201526d746f2c20302c20616d6f756e742960901b6064820152608401610d1e565b612796565b6001600160a01b03831661278c5761274482611808565b6127285760405162461bcd60e51b8152602060048201526019602482015278455243373934334e6f74416c6c6f7765645573657228746f2960381b6044820152606401610d1e565b6127968382612f97565b6112b283838361306d565b60408051808201909152600080825260208201527f00000000000000000000000000000000000000000000000000000000000000006001600160a01b031663ddc28c586040518060a001604052808863ffffffff16815260200161280489612882565b8152602001878152602001868152602001851515815250306040518363ffffffff1660e01b8152600401612839929190614428565b6040805180830381865afa158015612855573d6000803e3d6000fd5b505050506040513d601f19601f8201168201806040525081019061287991906144ef565b95945050505050565b63ffffffff811660009081526001602052604081205480610c1e5760405163f6ff4fb760e01b815263ffffffff84166004820152602401610d1e565b60006128cc85870187613b62565b90508061295257600080806128e3888a018a61450b565b6001600160a01b0382166000818152600a602052604090819020805484151560ff19909116179055519396509194509250907fa54714518c5d275fdcd3d2a461e4858e4e8cb04fb93cd0bca9d6d34115f264409061294690841515815260200190565b60405180910390a25050505b600181036129c3576000808061296a888a018a614549565b92509250925061297c60008383612540565b816001600160a01b03167f0f6798a560793a54c3bcfe86a93cde1e73087d944c0ea20544137d4121396885826040516129b791815260200190565b60405180910390a25050505b60028103612a3457600080806129db888a018a614549565b9250925092506129ed82600083612540565b816001600160a01b03167fcc16f5dbb4873280815c1ee09dbd06736cffcc184412cf7a71a0fdb75d397ca582604051612a2891815260200190565b60405180910390a25050505b60038103612aaf5760008080612a4c888a018a614549565b6001600160a01b0382166000818152600b60205260408082208490555194975092955090935090917f7b0c29e799ed468266b4d070c03070137a95cb869c5eb7c18063fb7b1a7a09c590612aa39085815260200190565b60405180910390a35050505b60048103612b205760008080612ac7888a018a614549565b925092509250612ad960008383612540565b816001600160a01b03167f0f6798a560793a54c3bcfe86a93cde1e73087d944c0ea20544137d412139688582604051612b1491815260200190565b60405180910390a25050505b5050505050505050565b6001600160a01b038381166000908152600460209081526040808320938616835292905220546000198110156112035781811015612b9457604051637dc7a0d960e11b81526001600160a01b03841660048201526024810182905260448101839052606401610d1e565b6112038484848403600061318a565b6001600160a01b038316612bcd57604051634b637e8f60e11b815260006004820152602401610d1e565b6001600160a01b038216612bf75760405163ec442f0560e01b815260006004820152602401610d1e565b6112b2838383612540565b612c0a61374b565b6000612c19846000015161328a565b602085015190915015612c3357612c3384602001516132b3565b7f00000000000000000000000000000000000000000000000000000000000000006001600160a01b0316632637a450826040518060a001604052808b63ffffffff168152602001612c838c612882565b81526020018a815260200189815260200160008960200151111515815250866040518463ffffffff1660e01b8152600401612cbf929190614428565b60806040518083038185885af1158015612cdd573d6000803e3d6000fd5b50505050506040513d601f19601f820116820180604052508101906112749190614570565b600080612d0f8484613395565b905080156117ad576000848152600960205260409020612d2f9084613429565b509392505050565b6000546001600160a01b0316331461151f5760405163118cdaa760e01b8152336004820152602401610d1e565b63ffffffff8216600081815260016020908152604091829020849055815192835282018390527f238399d427b947898edb290f5ff0f9109849b1c3ba196a42e35f00c50a54b98b910160405180910390a15050565b600080612dc6848461343e565b905080156117ad576000848152600960205260409020612d2f90846134ab565b600080546001600160a01b038381166001600160a01b0319831681178455604051919092169283917f8be0079c531659141344cd1fd0a4f28419497f9722a3daafe3b4186f6b6457e09190a35050565b60006117ad83836134c0565b606060006117ad836134ea565b60005b8151811015612f2657612e81828281518110612e7057612e706141de565b602002602001015160400151612f61565b818181518110612e9357612e936141de565b60200260200101516040015160026000848481518110612eb557612eb56141de565b60200260200101516000015163ffffffff1663ffffffff1681526020019081526020016000206000848481518110612eef57612eef6141de565b60200260200101516020015161ffff1661ffff1681526020019081526020016000209081612f1d9190614616565b50600101612e52565b507fbe4864a8e820971c0247f5992e2da559595f7bf076a21cb5928d443d2a13b67481604051612f5691906146d5565b60405180910390a150565b600281015161ffff811660031461121b5781604051639a6d49cd60e01b8152600401610d1e919061380c565b6000610c1e825490565b6001600160a01b0382166000908152600b6020526040812054612fb9846114f2565b612fc3919061421e565b90508082118015612fdc5750612fd8836114f2565b8211155b156112b257612feb818361421e565b6001600160a01b0384166000908152600b60205260408120805490919061301390849061421e565b90915550506001600160a01b0383166000818152600b602090815260408083205490519081529192917f7b0c29e799ed468266b4d070c03070137a95cb869c5eb7c18063fb7b1a7a09c591015b60405180910390a3505050565b6001600160a01b03831661309857806005600082825461308d919061418a565b9091555061310a9050565b6001600160a01b038316600090815260036020526040902054818110156130eb5760405163391434e360e21b81526001600160a01b03851660048201526024810182905260448101839052606401610d1e565b6001600160a01b03841660009081526003602052604090209082900390555b6001600160a01b03821661312657600580548290039055613145565b6001600160a01b03821660009081526003602052604090208054820190555b816001600160a01b0316836001600160a01b03167fddf252ad1be2c89b69c2b068fc378daa952ba7f163c4a11628f55a4df523b3ef8360405161306091815260200190565b6001600160a01b0384166131b45760405163e602df0560e01b815260006004820152602401610d1e565b6001600160a01b0383166131de57604051634a1406b160e11b815260006004820152602401610d1e565b6001600160a01b038085166000908152600460209081526040808320938716835292905220829055801561120357826001600160a01b0316846001600160a01b03167f8c5be1e5ebec7d5bd14f71427d1e84f3dd0314c0f7b2291e5b200ac8c7c3b92584604051611f6991815260200190565b61325b82826117b4565b61121b5760405163e2517d3f60e01b81526001600160a01b038216600482015260248101839052604401610d1e565b6000813410156132af576040516304fb820960e51b8152346004820152602401610d1e565b5090565b60007f00000000000000000000000000000000000000000000000000000000000000006001600160a01b031663e4fe1d946040518163ffffffff1660e01b8152600401602060405180830381865afa158015613313573d6000803e3d6000fd5b505050506040513d601f19601f820116820180604052508101906133379190614760565b90506001600160a01b038116613360576040516329b99a9560e11b815260040160405180910390fd5b61121b6001600160a01b038216337f000000000000000000000000000000000000000000000000000000000000000085613546565b60006133a183836117b4565b6134215760008381526008602090815260408083206001600160a01b03861684529091529020805460ff191660011790556133d93390565b6001600160a01b0316826001600160a01b0316847f2f8788117e7eff1d82e926ec794901d17c78024a50270940304540a733656f0d60405160405180910390a4506001610c1e565b506000610c1e565b60006117ad836001600160a01b0384166135a0565b600061344a83836117b4565b156134215760008381526008602090815260408083206001600160a01b0386168085529252808320805460ff1916905551339286917ff6391f5c32d9c69d2a47ea670b442974b53935d1edc7fd64eb21e047a839171b9190a4506001610c1e565b60006117ad836001600160a01b0384166135e7565b60008260000182815481106134d7576134d76141de565b9060005260206000200154905092915050565b60608160000180548060200260200160405190810160405280929190818152602001828054801561353a57602002820191906000526020600020905b815481526020019060010190808311613526575b50505050509050919050565b604080516001600160a01b0385811660248301528416604482015260648082018490528251808303909101815260849091019091526020810180516001600160e01b03166323b872dd60e01b1790526112039085906136da565b600081815260018301602052604081205461342157508154600181810184556000848152602080822090930184905584548482528286019093526040902091909155610c1e565b600081815260018301602052604081205480156136d057600061360b60018361421e565b855490915060009061361f9060019061421e565b905080821461368457600086600001828154811061363f5761363f6141de565b9060005260206000200154905080876000018481548110613662576136626141de565b6000918252602080832090910192909255918252600188019052604090208390555b85548690806136955761369561477d565b600190038181906000526020600020016000905590558560010160008681526020019081526020016000206000905560019350505050610c1e565b6000915050610c1e565b600080602060008451602086016000885af1806136fd576040513d6000823e3d81fd5b50506000513d91508115613715578060011415613722565b6001600160a01b0384163b155b1561120357604051635274afe760e01b81526001600160a01b0385166004820152602401610d1e565b60405180606001604052806000801916815260200160006001600160401b0316815260200161378d604051806040016040528060008152602001600081525090565b905290565b6000602082840312156137a457600080fd5b81356001600160e01b0319811681146117ad57600080fd5b60005b838110156137d75781810151838201526020016137bf565b50506000910152565b600081518084526137f88160208601602086016137bc565b601f01601f19169290920160200192915050565b6020815260006117ad60208301846137e0565b6001600160a01b03811681146124bb57600080fd5b6000806040838503121561384757600080fd5b82356138528161381f565b946020939093013593505050565b634e487b7160e01b600052604160045260246000fd5b604051606081016001600160401b038111828210171561389857613898613860565b60405290565b604051601f8201601f191681016001600160401b03811182821017156138c6576138c6613860565b604052919050565b60006001600160401b038211156138e7576138e7613860565b5060051b60200190565b803563ffffffff8116811461182d57600080fd5b600082601f83011261391657600080fd5b8135602061392b613926836138ce565b61389e565b8083825260208201915060208460051b87010193508684111561394d57600080fd5b602086015b8481101561397057613963816138f1565b8352918301918301613952565b509695505050505050565b60008083601f84011261398d57600080fd5b5081356001600160401b038111156139a457600080fd5b6020830191508360208285010111156139bc57600080fd5b9250929050565b8035801515811461182d57600080fd5b60008060008060008060a087890312156139ec57600080fd5b86356001600160401b0380821115613a0357600080fd5b613a0f8a838b01613905565b975060208901359150613a218261381f565b9095506040880135945060608801359080821115613a3e57600080fd5b50613a4b89828a0161397b565b9094509250613a5e9050608088016139c3565b90509295509295509295565b600060608284031215613a7c57600080fd5b50919050565b600080600080600080600060e0888a031215613a9d57600080fd5b613aa78989613a6a565b96506060880135955060808801356001600160401b0380821115613aca57600080fd5b613ad68b838c0161397b565b909750955060a08a01359150613aeb8261381f565b90935060c08901359080821115613b0157600080fd5b50613b0e8a828b0161397b565b989b979a50959850939692959293505050565b600080600060608486031215613b3657600080fd5b8335613b418161381f565b92506020840135613b518161381f565b929592945050506040919091013590565b600060208284031215613b7457600080fd5b5035919050565b600080600080600060808688031215613b9357600080fd5b85356001600160401b0380821115613baa57600080fd5b613bb689838a01613905565b965060208801359150613bc88261381f565b9094506040870135935060608701359080821115613be557600080fd5b50613bf28882890161397b565b969995985093965092949392505050565b60008060408385031215613c1657600080fd5b823591506020830135613c288161381f565b809150509250929050565b60008060408385031215613c4657600080fd5b613852836138f1565b600080600080600060808688031215613c6757600080fd5b613c70866138f1565b94506020860135935060408601356001600160401b03811115613c9257600080fd5b613c9e8882890161397b565b9094509250613cb19050606087016139c3565b90509295509295909350565b60008060008060808587031215613cd357600080fd5b8435613cde8161381f565b93506020850135613cee8161381f565b93969395505050506040820135916060013590565b600060208284031215613d1557600080fd5b81356117ad8161381f565b803561ffff8116811461182d57600080fd5b60008060408385031215613d4557600080fd5b613d4e836138f1565b9150613d5c60208401613d20565b90509250929050565b60008060008060a08587031215613d7b57600080fd5b613d858686613a6a565b935060608501356001600160401b03811115613da057600080fd5b613dac8782880161397b565b9094509250506080850135613dc08161381f565b939692955090935050565b600080600080600060808688031215613de357600080fd5b85356001600160401b0380821115613dfa57600080fd5b613e0689838a01613905565b965060208801359150613e188261381f565b90945060408701359080821115613e2e57600080fd5b50613c9e8882890161397b565b60008060408385031215613e4e57600080fd5b50508035926020909101359150565b6020808252825182820181905260009190848201906040850190845b81811015613e9e5783516001600160a01b031683529284019291840191600101613e79565b50909695505050505050565b60008060208385031215613ebd57600080fd5b82356001600160401b0380821115613ed457600080fd5b818501915085601f830112613ee857600080fd5b813581811115613ef757600080fd5b8660208260051b8501011115613f0c57600080fd5b60209290920196919550909350505050565b600060208284031215613f3057600080fd5b6117ad826138f1565b60008060008060608587031215613f4f57600080fd5b613f58856138f1565b9350613f6660208601613d20565b925060408501356001600160401b03811115613f8157600080fd5b613f8d8782880161397b565b95989497509550505050565b60008060008060008060a08789031215613fb257600080fd5b86356001600160401b0380821115613fc957600080fd5b613fd58a838b01613905565b975060208901359150613fe78261381f565b90955060408801359080821115613ffd57600080fd5b5061400a89828a0161397b565b909550935061401d9050606088016139c3565b9150613a5e608088016139c3565b60008060006060848603121561404057600080fd5b833561404b8161381f565b95602085013595506040909401359392505050565b6000806000806060858703121561407657600080fd5b61407f856138f1565b93506020850135925060408501356001600160401b03811115613f8157600080fd5b600080604083850312156140b457600080fd5b82356140bf8161381f565b91506020830135613c288161381f565b6000606082840312156140e157600080fd5b6117ad8383613a6a565b600181811c908216806140ff57607f821691505b602082108103613a7c57634e487b7160e01b600052602260045260246000fd5b6020808252600d908201526c20b2323932b9b99032b93937b960991b604082015260600190565b602080825260149082015273155cd95c881b9bdd081dda1a5d195b1a5cdd195960621b604082015260600190565b634e487b7160e01b600052601160045260246000fd5b80820180821115610c1e57610c1e614174565b6000826141ba57634e487b7160e01b600052601260045260246000fd5b500490565b9283526001600160a01b03919091166020830152604082015260600190565b634e487b7160e01b600052603260045260246000fd5b60208082526010908201526f496e73756666696369656e742066656560801b604082015260600190565b81810381811115610c1e57610c1e614174565b602080825260149082015273496e73756666696369656e742062616c616e636560601b604082015260600190565b6020808252601190820152702a37b5b2b7399030b93290333937bd32b760791b604082015260600190565b6000614298613926846138ce565b80848252602080830192508560051b8501368111156142b657600080fd5b855b8181101561439b5780356001600160401b03808211156142d85760008081fd5b8189019150606082360312156142ee5760008081fd5b6142f6613876565b6142ff836138f1565b815261430c868401613d20565b86820152604080840135838111156143245760008081fd5b9390930192601f368186011261433a5760008081fd5b84358481111561434c5761434c613860565b61435d818301601f19168a0161389e565b9450808552368982880101111561437657600091508182fd5b808987018a8701376000908501890152508101919091528652509382019382016142b8565b50919695505050505050565b600080858511156143b757600080fd5b838611156143c457600080fd5b5050820193919092039150565b600084516143e38184602089016137bc565b8201838582376000930192835250909392505050565b60208152816020820152818360408301376000818301604090810191909152601f909201601f19160101919050565b6040815263ffffffff8351166040820152602083015160608201526000604084015160a0608084015261445e60e08401826137e0565b90506060850151603f198483030160a085015261447b82826137e0565b60809690960151151560c08501525050506001600160a01b039190911660209091015290565b6000604082840312156144b357600080fd5b604051604081018181106001600160401b03821117156144d5576144d5613860565b604052825181526020928301519281019290925250919050565b60006040828403121561450157600080fd5b6117ad83836144a1565b60008060006060848603121561452057600080fd5b8335925060208401356145328161381f565b9150614540604085016139c3565b90509250925092565b60008060006060848603121561455e57600080fd5b833592506020840135613b518161381f565b60006080828403121561458257600080fd5b61458a613876565b8251815260208301516001600160401b03811681146145a857600080fd5b60208201526145ba84604085016144a1565b60408201529392505050565b601f8211156112b2576000816000526020600020601f850160051c810160208610156145ef5750805b601f850160051c820191505b8181101561460e578281556001016145fb565b505050505050565b81516001600160401b0381111561462f5761462f613860565b6146438161463d84546140eb565b846145c6565b602080601f83116001811461467857600084156146605750858301515b600019600386901b1c1916600185901b17855561460e565b600085815260208120601f198616915b828110156146a757888601518255948401946001909101908401614688565b50858210156146c55787850151600019600388901b60f8161c191681555b5050505050600190811b01905550565b600060208083018184528085518083526040925060408601915060408160051b87010184880160005b8381101561475257888303603f190185528151805163ffffffff1684528781015161ffff1688850152860151606087850181905261473e818601836137e0565b9689019694505050908601906001016146fe565b509098975050505050505050565b60006020828403121561477257600080fd5b81516117ad8161381f565b634e487b7160e01b600052603160045260246000fdfe973ef39d76cc2c6090feab1c030bec6ab5db557f64df047a4c4f9b5953cf1df3a26469706673582212208a0c7cdfffefb1db8f425e2aa0da0d29469b50a7cacf88d55f0d8a28e020bcaf64736f6c63430008160033",
  "devdoc": {
    "errors": {
      "AccessControlBadConfirmation()": [
        {
          "details": "The caller of a function is not the expected one. NOTE: Don't confuse with {AccessControlUnauthorizedAccount}."
        }
      ],
      "AccessControlUnauthorizedAccount(address,bytes32)": [
        {
          "details": "The `account` is missing a role."
        }
      ],
      "ERC20InsufficientAllowance(address,uint256,uint256)": [
        {
          "details": "Indicates a failure with the `spender`s `allowance`. Used in transfers.",
          "params": {
            "allowance": "Amount of tokens a `spender` is allowed to operate with.",
            "needed": "Minimum amount required to perform a transfer.",
            "spender": "Address that may be allowed to operate on tokens without being their owner."
          }
        }
      ],
      "ERC20InsufficientBalance(address,uint256,uint256)": [
        {
          "details": "Indicates an error related to the current `balance` of a `sender`. Used in transfers.",
          "params": {
            "balance": "Current balance for the interacting account.",
            "needed": "Minimum amount required to perform a transfer.",
            "sender": "Address whose tokens are being transferred."
          }
        }
      ],
      "ERC20InvalidApprover(address)": [
        {
          "details": "Indicates a failure with the `approver` of a token to be approved. Used in approvals.",
          "params": {
            "approver": "Address initiating an approval operation."
          }
        }
      ],
      "ERC20InvalidReceiver(address)": [
        {
          "details": "Indicates a failure with the token `receiver`. Used in transfers.",
          "params": {
            "receiver": "Address to which tokens are being transferred."
          }
        }
      ],
      "ERC20InvalidSender(address)": [
        {
          "details": "Indicates a failure with the token `sender`. Used in transfers.",
          "params": {
            "sender": "Address whose tokens are being transferred."
          }
        }
      ],
      "ERC20InvalidSpender(address)": [
        {
          "details": "Indicates a failure with the `spender` to be approved. Used in approvals.",
          "params": {
            "spender": "Address that may be allowed to operate on tokens without being their owner."
          }
        }
      ],
      "ERC7943InsufficientUnfrozenBalance(address,uint256,uint256,uint256)": [
        {
          "params": {
            "amount": "The amount being transferred.",
            "tokenId": "The ID of the token being transferred.",
            "unfrozen": "The amount of tokens that are unfrozen and available to transfer.",
            "user": "The address holding the tokens."
          }
        }
      ],
      "ERC7943NotAllowedTransfer(address,address,uint256,uint256)": [
        {
          "params": {
            "amount": "The amount being transferred.",
            "from": "The address from which tokens are being transferred.",
            "to": "The address to which tokens are being transferred.",
            "tokenId": "The ID of the token being transferred."
          }
        }
      ],
      "ERC7943NotAllowedUser(address)": [
        {
          "params": {
            "account": "The address of the user which is not allowed for interactions."
          }
        }
      ],
      "OwnableInvalidOwner(address)": [
        {
          "details": "The owner is not a valid owner account. (eg. `address(0)`)"
        }
      ],
      "OwnableUnauthorizedAccount(address)": [
        {
          "details": "The caller account is not authorized to perform an operation."
        }
      ],
      "SafeERC20FailedOperation(address)": [
        {
          "details": "An operation with an ERC-20 token failed."
        }
      ]
    },
    "events": {
      "Approval(address,address,uint256)": {
        "details": "Emitted when the allowance of a `spender` for an `owner` is set by a call to {approve}. `value` is the new allowance."
      },
      "ForcedTransfer(address,address,uint256,uint256)": {
        "params": {
          "amount": "The amount seized.",
          "from": "The address from which tokens were taken.",
          "to": "The address to which seized tokens were transferred.",
          "tokenId": "The ID of the token being transferred."
        }
      },
      "Frozen(address,uint256,uint256)": {
        "params": {
          "amount": "The amount of tokens frozen after the change.",
          "tokenId": "The ID of the token being frozen.",
          "user": "The address of the user whose tokens are being frozen."
        }
      },
      "RoleAdminChanged(bytes32,bytes32,bytes32)": {
        "details": "Emitted when `newAdminRole` is set as ``role``'s admin role, replacing `previousAdminRole` `DEFAULT_ADMIN_ROLE` is the starting admin for all roles, despite {RoleAdminChanged} not being emitted to signal this."
      },
      "RoleGranted(bytes32,address,address)": {
        "details": "Emitted when `account` is granted `role`. `sender` is the account that originated the contract call. This account bears the admin role (for the granted role). Expected in cases where the role was granted using the internal {AccessControl-_grantRole}."
      },
      "RoleRevoked(bytes32,address,address)": {
        "details": "Emitted when `account` is revoked `role`. `sender` is the account that originated the contract call:   - if using `revokeRole`, it is the admin role bearer   - if using `renounceRole`, it is the role bearer (i.e. `account`)"
      },
      "Transfer(address,address,uint256)": {
        "details": "Emitted when `value` tokens are moved from one account (`from`) to another (`to`). Note that `value` may be zero."
      }
    },
    "kind": "dev",
    "methods": {
      "allowInitializePath((uint32,bytes32,uint64))": {
        "details": "This indicates to the endpoint that the OApp has enabled msgs for this particular path to be received.This defaults to assuming if a peer has been set, its initialized. Can be overridden by the OApp if there is other logic to determine this.",
        "params": {
          "origin": "The origin information containing the source endpoint and sender address."
        },
        "returns": {
          "_0": "Whether the path has been initialized."
        }
      },
      "allowance(address,address)": {
        "details": "See {IERC20-allowance}."
      },
      "approve(address,uint256)": {
        "details": "See {IERC20-approve}. NOTE: If `value` is the maximum `uint256`, the allowance is not updated on `transferFrom`. This is semantically equivalent to an infinite approval. Requirements: - `spender` cannot be the zero address."
      },
      "balanceOf(address)": {
        "details": "See {IERC20-balanceOf}."
      },
      "combineOptions(uint32,uint16,bytes)": {
        "details": "If there is an enforced lzReceive option: - {gasLimit: 200k, msg.value: 1 ether} AND a caller supplies a lzReceive option: {gasLimit: 100k, msg.value: 0.5 ether} - The resulting options will be {gasLimit: 300k, msg.value: 1.5 ether} when the message is executed on the remote lzReceive() function.This presence of duplicated options is handled off-chain in the verifier/executor.",
        "params": {
          "_eid": "The endpoint ID.",
          "_extraOptions": "Additional options passed by the caller.",
          "_msgType": "The OAPP message type."
        },
        "returns": {
          "_0": "options The combination of caller specified options AND enforced options."
        }
      },
      "constructor": {
        "params": {
          "_endpoint": "The local chain's LayerZero Endpoint V2 address",
          "_owner": "The address permitted to configure this OApp"
        }
      },
      "decimals()": {
        "details": "Returns the number of decimals used to get its user representation. For example, if `decimals` equals `2`, a balance of `505` tokens should be displayed to a user as `5.05` (`505 / 10 ** 2`). Tokens usually opt for a value of 18, imitating the relationship between Ether and Wei. This is the default value returned by this function, unless it's overridden. NOTE: This information is only used for _display_ purposes: it in no way affects any of the arithmetic of the contract, including {IERC20-balanceOf} and {IERC20-transfer}."
      },
      "getRoleAdmin(bytes32)": {
        "details": "Returns the admin role that controls `role`. See {grantRole} and {revokeRole}. To change a role's admin, use {_setRoleAdmin}."
      },
      "getRoleMember(bytes32,uint256)": {
        "details": "Returns one of the accounts that have `role`. `index` must be a value between 0 and {getRoleMemberCount}, non-inclusive. Role bearers are not sorted in any particular way, and their ordering may change at any point. WARNING: When using {getRoleMember} and {getRoleMemberCount}, make sure you perform all queries on the same block. See the following https://forum.openzeppelin.com/t/iterating-over-elements-on-enumerableset-in-openzeppelin-contracts/2296[forum post] for more information."
      },
      "getRoleMemberCount(bytes32)": {
        "details": "Returns the number of accounts that have `role`. Can be used together with {getRoleMember} to enumerate all bearers of a role."
      },
      "getRoleMembers(bytes32)": {
        "details": "Return all accounts that have `role` WARNING: This operation will copy the entire storage to memory, which can be quite expensive. This is designed to mostly be used by view accessors that are queried without any gas fees. Developers should keep in mind that this function has an unbounded cost, and using it as part of a state-changing function may render the function uncallable if the set grows to a point where copying to memory consumes too much gas to fit in a block."
      },
      "grantRole(bytes32,address)": {
        "details": "Grants `role` to `account`. If `account` had not been already granted `role`, emits a {RoleGranted} event. Requirements: - the caller must have ``role``'s admin role. May emit a {RoleGranted} event."
      },
      "hasRole(bytes32,address)": {
        "details": "Returns `true` if `account` has been granted `role`."
      },
      "isComposeMsgSender((uint32,bytes32,uint64),bytes,address)": {
        "details": "_origin The origin information containing the source endpoint and sender address.  - srcEid: The source chain endpoint ID.  - sender: The sender address on the src chain.  - nonce: The nonce of the message._message The lzReceive payload.Applications can optionally choose to implement separate composeMsg senders that are NOT the bridging layer.The default sender IS the OAppReceiver implementer.",
        "params": {
          "_sender": "The sender address."
        },
        "returns": {
          "_0": "isSender Is a valid sender."
        }
      },
      "isUserAllowed(address)": {
        "details": "This is often used for allowlist/KYC/KYB/AML checks.",
        "params": {
          "user": "The address to check."
        },
        "returns": {
          "allowed": "True if the user is allowed, false otherwise."
        }
      },
      "lzReceive((uint32,bytes32,uint64),bytes32,bytes,address,bytes)": {
        "details": "Entry point for receiving messages or packets from the endpoint.Entry point for receiving msg/packet from the LayerZero endpoint.",
        "params": {
          "_executor": "The address of the executor for the received message.",
          "_extraData": "Additional arbitrary data provided by the corresponding executor.",
          "_guid": "The unique identifier for the received LayerZero message.",
          "_message": "The payload of the received message.",
          "_origin": "The origin information containing the source endpoint and sender address.  - srcEid: The source chain endpoint ID.  - sender: The sender address on the src chain.  - nonce: The nonce of the message."
        }
      },
      "name()": {
        "details": "Returns the name of the token."
      },
      "nextNonce(uint32,bytes32)": {
        "details": "_srcEid The source endpoint ID._sender The sender address.The path nonce starts from 1. If 0 is returned it means that there is NO nonce ordered enforcement.Is required by the off-chain executor to determine the OApp expects msg execution is ordered.This is also enforced by the OApp.By default this is NOT enabled. ie. nextNonce is hardcoded to return 0.",
        "returns": {
          "nonce": "The next nonce."
        }
      },
      "oAppVersion()": {
        "returns": {
          "receiverVersion": "The version of the OAppReceiver.sol implementation.",
          "senderVersion": "The version of the OAppSender.sol implementation."
        }
      },
      "owner()": {
        "details": "Returns the address of the current owner."
      },
      "renounceOwnership()": {
        "details": "Leaves the contract without owner. It will not be possible to call `onlyOwner` functions. Can only be called by the current owner. NOTE: Renouncing ownership will leave the contract without an owner, thereby disabling any functionality that is only available to the owner."
      },
      "renounceRole(bytes32,address)": {
        "details": "Revokes `role` from the calling account. Roles are often managed via {grantRole} and {revokeRole}: this function's purpose is to provide a mechanism for accounts to lose their privileges if they are compromised (such as when a trusted device is misplaced). If the calling account had been revoked `role`, emits a {RoleRevoked} event. Requirements: - the caller must be `callerConfirmation`. May emit a {RoleRevoked} event."
      },
      "revokeRole(bytes32,address)": {
        "details": "Revokes `role` from `account`. If `account` had been granted `role`, emits a {RoleRevoked} event. Requirements: - the caller must have ``role``'s admin role. May emit a {RoleRevoked} event."
      },
      "setDelegate(address)": {
        "details": "Only the owner/admin of the OApp can call this function.Provides the ability for a delegate to set configs, on behalf of the OApp, directly on the Endpoint contract.",
        "params": {
          "_delegate": "The address of the delegate to be set."
        }
      },
      "setEnforcedOptions((uint32,uint16,bytes)[])": {
        "details": "Sets the enforced options for specific endpoint and message type combinations.Only the owner/admin of the OApp can call this function.Provides a way for the OApp to enforce things like paying for PreCrime, AND/OR minimum dst lzReceive gas amounts etc.These enforced options can vary as the potential options/execution on the remote may differ as per the msgType. eg. Amount of lzReceive() gas necessary to deliver a lzCompose() message adds overhead you dont want to pay if you are only making a standard LayerZero message ie. lzReceive() WITHOUT sendCompose().",
        "params": {
          "_enforcedOptions": "An array of EnforcedOptionParam structures specifying enforced options."
        }
      },
      "setPeer(uint32,bytes32)": {
        "details": "Only the owner/admin of the OApp can call this function.Indicates that the peer is trusted to send LayerZero messages to this OApp.Set this to bytes32(0) to remove the peer address.Peer is a bytes32 to accommodate non-evm chains.",
        "params": {
          "_eid": "The endpoint ID.",
          "_peer": "The address of the peer to be associated with the corresponding endpoint."
        }
      },
      "supportsInterface(bytes4)": {
        "details": "See {IERC165-supportsInterface}."
      },
      "symbol()": {
        "details": "Returns the symbol of the token, usually a shorter version of the name."
      },
      "totalSupply()": {
        "details": "See {IERC20-totalSupply}."
      },
      "transfer(address,uint256)": {
        "details": "See {IERC20-transfer}. Requirements: - `to` cannot be the zero address. - the caller must have a balance of at least `value`."
      },
      "transferFrom(address,address,uint256)": {
        "details": "See {IERC20-transferFrom}. Skips emitting an {Approval} event indicating an allowance update. This is not required by the ERC. See {xref-ERC20-_approve-address-address-uint256-bool-}[_approve]. NOTE: Does not update the allowance if the current allowance is the maximum `uint256`. Requirements: - `from` and `to` cannot be the zero address. - `from` must have a balance of at least `value`. - the caller must have allowance for ``from``'s tokens of at least `value`."
      },
      "transferOwnership(address)": {
        "details": "Transfers ownership of the contract to a new account (`newOwner`). Can only be called by the current owner."
      }
    },
    "version": 1
  },
  "userdoc": {
    "errors": {
      "ERC7943InsufficientUnfrozenBalance(address,uint256,uint256,uint256)": [
        {
          "notice": "Error reverted when a transfer is attempted from `user` with an `amount` of `tokenId` less or equal than its balance, but greater than its unfrozen balance."
        }
      ],
      "ERC7943NotAllowedTransfer(address,address,uint256,uint256)": [
        {
          "notice": "Error reverted when a transfer is not allowed due to restrictions in place."
        }
      ],
      "ERC7943NotAllowedUser(address)": [
        {
          "notice": "Error reverted when a user is not allowed to interact."
        }
      ]
    },
    "events": {
      "ForcedTransfer(address,address,uint256,uint256)": {
        "notice": "Emitted when tokens are taken from one address and transferred to another."
      },
      "Frozen(address,uint256,uint256)": {
        "notice": "Emitted when `setFrozen` is called, changing the frozen `amount` of `tokenId` tokens for `user`."
      }
    },
    "kind": "user",
    "methods": {
      "SEND()": {
        "notice": "Msg type for sending a string, for use in OAppOptionsType3 as an enforced option"
      },
      "allowInitializePath((uint32,bytes32,uint64))": {
        "notice": "Checks if the path initialization is allowed based on the provided origin."
      },
      "combineOptions(uint32,uint16,bytes)": {
        "notice": "Combines options for a given endpoint and message type."
      },
      "constructor": {
        "notice": "Initialize with Endpoint V2 and owner address"
      },
      "endpoint()": {
        "notice": "Retrieves the LayerZero endpoint associated with the OApp."
      },
      "isComposeMsgSender((uint32,bytes32,uint64),bytes,address)": {
        "notice": "Indicates whether an address is an approved composeMsg sender to the Endpoint."
      },
      "isUserAllowed(address)": {
        "notice": "Checks if a specific user is allowed to interact according to token rules."
      },
      "nextNonce(uint32,bytes32)": {
        "notice": "Retrieves the next nonce for a given source endpoint and sender address."
      },
      "oAppVersion()": {
        "notice": "Retrieves the OApp version information."
      },
      "peers(uint32)": {
        "notice": "Retrieves the peer (OApp) associated with a corresponding endpoint."
      },
      "setDelegate(address)": {
        "notice": "Sets the delegate address for the OApp."
      },
      "setPeer(uint32,bytes32)": {
        "notice": "Sets the peer address (OApp instance) for a corresponding endpoint."
      }
    },
    "version": 1
  },
  "storageLayout": {
    "storage": [
      {
        "astId": 1912,
        "contract": "contracts/MyOApp.sol:MyOApp",
        "label": "_owner",
        "offset": 0,
        "slot": "0",
        "type": "t_address"
      },
      {
        "astId": 785,
        "contract": "contracts/MyOApp.sol:MyOApp",
        "label": "peers",
        "offset": 0,
        "slot": "1",
        "type": "t_mapping(t_uint32,t_bytes32)"
      },
      {
        "astId": 1381,
        "contract": "contracts/MyOApp.sol:MyOApp",
        "label": "enforcedOptions",
        "offset": 0,
        "slot": "2",
        "type": "t_mapping(t_uint32,t_mapping(t_uint16,t_bytes_storage))"
      },
      {
        "astId": 2485,
        "contract": "contracts/MyOApp.sol:MyOApp",
        "label": "_balances",
        "offset": 0,
        "slot": "3",
        "type": "t_mapping(t_address,t_uint256)"
      },
      {
        "astId": 2491,
        "contract": "contracts/MyOApp.sol:MyOApp",
        "label": "_allowances",
        "offset": 0,
        "slot": "4",
        "type": "t_mapping(t_address,t_mapping(t_address,t_uint256))"
      },
      {
        "astId": 2493,
        "contract": "contracts/MyOApp.sol:MyOApp",
        "label": "_totalSupply",
        "offset": 0,
        "slot": "5",
        "type": "t_uint256"
      },
      {
        "astId": 2495,
        "contract": "contracts/MyOApp.sol:MyOApp",
        "label": "_name",
        "offset": 0,
        "slot": "6",
        "type": "t_string_storage"
      },
      {
        "astId": 2497,
        "contract": "contracts/MyOApp.sol:MyOApp",
        "label": "_symbol",
        "offset": 0,
        "slot": "7",
        "type": "t_string_storage"
      },
      {
        "astId": 1551,
        "contract": "contracts/MyOApp.sol:MyOApp",
        "label": "_roles",
        "offset": 0,
        "slot": "8",
        "type": "t_mapping(t_bytes32,t_struct(RoleData)1546_storage)"
      },
      {
        "astId": 2073,
        "contract": "contracts/MyOApp.sol:MyOApp",
        "label": "_roleMembers",
        "offset": 0,
        "slot": "9",
        "type": "t_mapping(t_bytes32,t_struct(AddressSet)8597_storage)"
      },
      {
        "astId": 8981,
        "contract": "contracts/MyOApp.sol:MyOApp",
        "label": "isWhitelisted",
        "offset": 0,
        "slot": "10",
        "type": "t_mapping(t_address,t_bool)"
      },
      {
        "astId": 8985,
        "contract": "contracts/MyOApp.sol:MyOApp",
        "label": "_frozenTokens",
        "offset": 0,
        "slot": "11",
        "type": "t_mapping(t_address,t_uint256)"
      }
    ],
    "types": {
      "t_address": {
        "encoding": "inplace",
        "label": "address",
        "numberOfBytes": "20"
      },
      "t_array(t_bytes32)dyn_storage": {
        "base": "t_bytes32",
        "encoding": "dynamic_array",
        "label": "bytes32[]",
        "numberOfBytes": "32"
      },
      "t_bool": {
        "encoding": "inplace",
        "label": "bool",
        "numberOfBytes": "1"
      },
      "t_bytes32": {
        "encoding": "inplace",
        "label": "bytes32",
        "numberOfBytes": "32"
      },
      "t_bytes_storage": {
        "encoding": "bytes",
        "label": "bytes",
        "numberOfBytes": "32"
      },
      "t_mapping(t_address,t_bool)": {
        "encoding": "mapping",
        "key": "t_address",
        "label": "mapping(address => bool)",
        "numberOfBytes": "32",
        "value": "t_bool"
      },
      "t_mapping(t_address,t_mapping(t_address,t_uint256))": {
        "encoding": "mapping",
        "key": "t_address",
        "label": "mapping(address => mapping(address => uint256))",
        "numberOfBytes": "32",
        "value": "t_mapping(t_address,t_uint256)"
      },
      "t_mapping(t_address,t_uint256)": {
        "encoding": "mapping",
        "key": "t_address",
        "label": "mapping(address => uint256)",
        "numberOfBytes": "32",
        "value": "t_uint256"
      },
      "t_mapping(t_bytes32,t_struct(AddressSet)8597_storage)": {
        "encoding": "mapping",
        "key": "t_bytes32",
        "label": "mapping(bytes32 => struct EnumerableSet.AddressSet)",
        "numberOfBytes": "32",
        "value": "t_struct(AddressSet)8597_storage"
      },
      "t_mapping(t_bytes32,t_struct(RoleData)1546_storage)": {
        "encoding": "mapping",
        "key": "t_bytes32",
        "label": "mapping(bytes32 => struct AccessControl.RoleData)",
        "numberOfBytes": "32",
        "value": "t_struct(RoleData)1546_storage"
      },
      "t_mapping(t_bytes32,t_uint256)": {
        "encoding": "mapping",
        "key": "t_bytes32",
        "label": "mapping(bytes32 => uint256)",
        "numberOfBytes": "32",
        "value": "t_uint256"
      },
      "t_mapping(t_uint16,t_bytes_storage)": {
        "encoding": "mapping",
        "key": "t_uint16",
        "label": "mapping(uint16 => bytes)",
        "numberOfBytes": "32",
        "value": "t_bytes_storage"
      },
      "t_mapping(t_uint32,t_bytes32)": {
        "encoding": "mapping",
        "key": "t_uint32",
        "label": "mapping(uint32 => bytes32)",
        "numberOfBytes": "32",
        "value": "t_bytes32"
      },
      "t_mapping(t_uint32,t_mapping(t_uint16,t_bytes_storage))": {
        "encoding": "mapping",
        "key": "t_uint32",
        "label": "mapping(uint32 => mapping(uint16 => bytes))",
        "numberOfBytes": "32",
        "value": "t_mapping(t_uint16,t_bytes_storage)"
      },
      "t_string_storage": {
        "encoding": "bytes",
        "label": "string",
        "numberOfBytes": "32"
      },
      "t_struct(AddressSet)8597_storage": {
        "encoding": "inplace",
        "label": "struct EnumerableSet.AddressSet",
        "members": [
          {
            "astId": 8596,
            "contract": "contracts/MyOApp.sol:MyOApp",
            "label": "_inner",
            "offset": 0,
            "slot": "0",
            "type": "t_struct(Set)8226_storage"
          }
        ],
        "numberOfBytes": "64"
      },
      "t_struct(RoleData)1546_storage": {
        "encoding": "inplace",
        "label": "struct AccessControl.RoleData",
        "members": [
          {
            "astId": 1543,
            "contract": "contracts/MyOApp.sol:MyOApp",
            "label": "hasRole",
            "offset": 0,
            "slot": "0",
            "type": "t_mapping(t_address,t_bool)"
          },
          {
            "astId": 1545,
            "contract": "contracts/MyOApp.sol:MyOApp",
            "label": "adminRole",
            "offset": 0,
            "slot": "1",
            "type": "t_bytes32"
          }
        ],
        "numberOfBytes": "64"
      },
      "t_struct(Set)8226_storage": {
        "encoding": "inplace",
        "label": "struct EnumerableSet.Set",
        "members": [
          {
            "astId": 8221,
            "contract": "contracts/MyOApp.sol:MyOApp",
            "label": "_values",
            "offset": 0,
            "slot": "0",
            "type": "t_array(t_bytes32)dyn_storage"
          },
          {
            "astId": 8225,
            "contract": "contracts/MyOApp.sol:MyOApp",
            "label": "_positions",
            "offset": 0,
            "slot": "1",
            "type": "t_mapping(t_bytes32,t_uint256)"
          }
        ],
        "numberOfBytes": "64"
      },
      "t_uint16": {
        "encoding": "inplace",
        "label": "uint16",
        "numberOfBytes": "2"
      },
      "t_uint256": {
        "encoding": "inplace",
        "label": "uint256",
        "numberOfBytes": "32"
      },
      "t_uint32": {
        "encoding": "inplace",
        "label": "uint32",
        "numberOfBytes": "4"
      }
    }
  }
}